{
  "contractName": "CustomOwnership",
  "abi": [
    {
      "constant": true,
      "inputs": [],
      "name": "registry",
      "outputs": [
        {
          "name": "",
          "type": "address"
        }
      ],
      "payable": false,
      "stateMutability": "view",
      "type": "function"
    },
    {
      "constant": true,
      "inputs": [],
      "name": "owner",
      "outputs": [
        {
          "name": "",
          "type": "address"
        }
      ],
      "payable": false,
      "stateMutability": "view",
      "type": "function"
    },
    {
      "inputs": [],
      "payable": false,
      "stateMutability": "nonpayable",
      "type": "constructor"
    },
    {
      "anonymous": false,
      "inputs": [
        {
          "indexed": true,
          "name": "previousOwner",
          "type": "address"
        },
        {
          "indexed": true,
          "name": "newOwner",
          "type": "address"
        }
      ],
      "name": "OwnershipTransferred",
      "type": "event"
    },
    {
      "anonymous": false,
      "inputs": [
        {
          "indexed": true,
          "name": "previousRepo",
          "type": "address"
        },
        {
          "indexed": true,
          "name": "newRepo",
          "type": "address"
        }
      ],
      "name": "RegistrySwitch",
      "type": "event"
    },
    {
      "constant": false,
      "inputs": [
        {
          "name": "newOwner",
          "type": "address"
        }
      ],
      "name": "transferOwnership",
      "outputs": [],
      "payable": false,
      "stateMutability": "nonpayable",
      "type": "function"
    },
    {
      "constant": false,
      "inputs": [
        {
          "name": "newRegistry",
          "type": "address"
        }
      ],
      "name": "switchRegistry",
      "outputs": [],
      "payable": false,
      "stateMutability": "nonpayable",
      "type": "function"
    }
  ],
  "bytecode": "0x608060405234801561001057600080fd5b5033600160006101000a81548173ffffffffffffffffffffffffffffffffffffffff021916908373ffffffffffffffffffffffffffffffffffffffff1602179055506104c0806100616000396000f300608060405260043610610062576000357c0100000000000000000000000000000000000000000000000000000000900463ffffffff1680637b103999146100675780638da5cb5b146100be578063d3d7ee3e14610115578063f2fde38b14610158575b600080fd5b34801561007357600080fd5b5061007c61019b565b604051808273ffffffffffffffffffffffffffffffffffffffff1673ffffffffffffffffffffffffffffffffffffffff16815260200191505060405180910390f35b3480156100ca57600080fd5b506100d36101c1565b604051808273ffffffffffffffffffffffffffffffffffffffff1673ffffffffffffffffffffffffffffffffffffffff16815260200191505060405180910390f35b34801561012157600080fd5b50610156600480360381019080803573ffffffffffffffffffffffffffffffffffffffff1690602001909291905050506101e6565b005b34801561016457600080fd5b50610199600480360381019080803573ffffffffffffffffffffffffffffffffffffffff16906020019092919050505061033e565b005b600160009054906101000a900473ffffffffffffffffffffffffffffffffffffffff1681565b6000809054906101000a900473ffffffffffffffffffffffffffffffffffffffff1681565b600160009054906101000a900473ffffffffffffffffffffffffffffffffffffffff1673ffffffffffffffffffffffffffffffffffffffff163373ffffffffffffffffffffffffffffffffffffffff1614151561024257600080fd5b600073ffffffffffffffffffffffffffffffffffffffff168173ffffffffffffffffffffffffffffffffffffffff161415151561027e57600080fd5b8073ffffffffffffffffffffffffffffffffffffffff16600160009054906101000a900473ffffffffffffffffffffffffffffffffffffffff1673ffffffffffffffffffffffffffffffffffffffff167f8755b4ea006e11f39ff16bce682fa637f15d03dd0d81c6f820a7ca2511b5bfd460405160405180910390a380600160006101000a81548173ffffffffffffffffffffffffffffffffffffffff021916908373ffffffffffffffffffffffffffffffffffffffff16021790555050565b600160009054906101000a900473ffffffffffffffffffffffffffffffffffffffff1673ffffffffffffffffffffffffffffffffffffffff163373ffffffffffffffffffffffffffffffffffffffff1614151561039a57600080fd5b600073ffffffffffffffffffffffffffffffffffffffff168173ffffffffffffffffffffffffffffffffffffffff16141515156103d657600080fd5b8073ffffffffffffffffffffffffffffffffffffffff166000809054906101000a900473ffffffffffffffffffffffffffffffffffffffff1673ffffffffffffffffffffffffffffffffffffffff167f8be0079c531659141344cd1fd0a4f28419497f9722a3daafe3b4186f6b6457e060405160405180910390a3806000806101000a81548173ffffffffffffffffffffffffffffffffffffffff021916908373ffffffffffffffffffffffffffffffffffffffff160217905550505600a165627a7a723058207ebfea244df10f883127702e600c3935723b26eff45636b2e151450ed26451f90029",
  "source": "pragma solidity ^0.4.0;\r\n\r\ncontract CustomOwnership{\r\n\r\n    address public owner;\r\n\r\n    address public registry;\r\n\r\n    event OwnershipTransferred(address indexed previousOwner, address indexed newOwner);\r\n\r\n    event RegistrySwitch(address indexed previousRepo, address indexed newRepo);\r\n\r\n    /**\r\n     * @dev The RepositoryOwned constructor sets the original `repository` of the contract to the sender\r\n     * account.\r\n     */\r\n\r\n    function CustomOwnership() public {\r\n        registry = msg.sender;\r\n    }\r\n\r\n    /**\r\n     * @dev Throws if called by any account other than the registry.\r\n     */\r\n    modifier registryOnly() {\r\n        require(msg.sender == registry);\r\n        _;\r\n    }\r\n\r\n    /**\r\n     * @dev Throws if called by any account other than the owner.\r\n     */\r\n    modifier onlyOwner() {\r\n        require(msg.sender == owner);\r\n        _;\r\n    }\r\n\r\n    /**\r\n     * @dev Allows the current owner to transfer control of the contract to a newOwner.\r\n     * @param newOwner The address to transfer ownership to.\r\n     */\r\n    function transferOwnership(address newOwner) public registryOnly {\r\n        require(newOwner != address(0));\r\n        OwnershipTransferred(owner, newOwner);\r\n        owner = newOwner;\r\n    }\r\n\r\n    /**\r\n     * @dev Allows the current owner to transfer control of the contract to a newRegistry.\r\n     * @param newRegistry The address to transfer ownership to.\r\n     */\r\n\r\n    function switchRegistry(address newRegistry) public registryOnly {\r\n        require(newRegistry != address(0));\r\n        RegistrySwitch(registry, newRegistry);\r\n        registry = newRegistry;\r\n    }\r\n\r\n}\r\n\r\n",
  "sourcePath": "C:\\Users\\User.Admin\\Desktop\\sol-workspace\\react-dmsmc\\contracts\\CustomOwnership.sol",
  "compiler": {
    "name": "solc",
    "version": "0.4.23+commit.124ca40d.Emscripten.clang"
  },
  "schemaVersion": "2.0.0",
  "updatedAt": "2018-05-10T05:52:32.934Z"
}