{
  "contractName": "Document",
  "abi": [
    {
      "constant": true,
      "inputs": [],
      "name": "documentsAdd",
      "outputs": [
        {
          "name": "",
          "type": "address"
        }
      ],
      "payable": false,
      "stateMutability": "view",
      "type": "function"
    },
    {
      "constant": true,
      "inputs": [
        {
          "name": "",
          "type": "uint256"
        }
      ],
      "name": "signers",
      "outputs": [
        {
          "name": "",
          "type": "address"
        }
      ],
      "payable": false,
      "stateMutability": "view",
      "type": "function"
    },
    {
      "constant": true,
      "inputs": [],
      "name": "checksum",
      "outputs": [
        {
          "name": "",
          "type": "bytes32"
        }
      ],
      "payable": false,
      "stateMutability": "view",
      "type": "function"
    },
    {
      "constant": true,
      "inputs": [],
      "name": "docName",
      "outputs": [
        {
          "name": "",
          "type": "string"
        }
      ],
      "payable": false,
      "stateMutability": "view",
      "type": "function"
    },
    {
      "constant": true,
      "inputs": [],
      "name": "registry",
      "outputs": [
        {
          "name": "",
          "type": "address"
        }
      ],
      "payable": false,
      "stateMutability": "view",
      "type": "function"
    },
    {
      "constant": true,
      "inputs": [
        {
          "name": "",
          "type": "uint256"
        }
      ],
      "name": "signatures",
      "outputs": [
        {
          "name": "signer",
          "type": "address"
        },
        {
          "name": "data",
          "type": "bytes32"
        },
        {
          "name": "signature",
          "type": "bytes"
        }
      ],
      "payable": false,
      "stateMutability": "view",
      "type": "function"
    },
    {
      "constant": true,
      "inputs": [],
      "name": "owner",
      "outputs": [
        {
          "name": "",
          "type": "address"
        }
      ],
      "payable": false,
      "stateMutability": "view",
      "type": "function"
    },
    {
      "constant": true,
      "inputs": [],
      "name": "id",
      "outputs": [
        {
          "name": "",
          "type": "uint256"
        }
      ],
      "payable": false,
      "stateMutability": "view",
      "type": "function"
    },
    {
      "constant": false,
      "inputs": [
        {
          "name": "newRegistry",
          "type": "address"
        }
      ],
      "name": "switchRegistry",
      "outputs": [],
      "payable": false,
      "stateMutability": "nonpayable",
      "type": "function"
    },
    {
      "constant": true,
      "inputs": [],
      "name": "identitiesAdd",
      "outputs": [
        {
          "name": "",
          "type": "address"
        }
      ],
      "payable": false,
      "stateMutability": "view",
      "type": "function"
    },
    {
      "constant": false,
      "inputs": [
        {
          "name": "newOwner",
          "type": "address"
        }
      ],
      "name": "transferOwnership",
      "outputs": [],
      "payable": false,
      "stateMutability": "nonpayable",
      "type": "function"
    },
    {
      "inputs": [
        {
          "name": "_id",
          "type": "uint256"
        },
        {
          "name": "_docName",
          "type": "string"
        },
        {
          "name": "_checksum",
          "type": "bytes32"
        },
        {
          "name": "_owner",
          "type": "address"
        },
        {
          "name": "_identitiesAdd",
          "type": "address"
        },
        {
          "name": "_documentsIntf",
          "type": "address"
        }
      ],
      "payable": false,
      "stateMutability": "nonpayable",
      "type": "constructor"
    },
    {
      "anonymous": false,
      "inputs": [
        {
          "indexed": false,
          "name": "docAddress",
          "type": "address"
        },
        {
          "indexed": false,
          "name": "signer",
          "type": "address"
        },
        {
          "indexed": false,
          "name": "totalSigned",
          "type": "uint256"
        },
        {
          "indexed": false,
          "name": "signersCount",
          "type": "uint256"
        }
      ],
      "name": "DocumentSigned",
      "type": "event"
    },
    {
      "anonymous": false,
      "inputs": [
        {
          "indexed": false,
          "name": "docAddress",
          "type": "address"
        },
        {
          "indexed": false,
          "name": "owner",
          "type": "address"
        },
        {
          "indexed": false,
          "name": "signer",
          "type": "address"
        },
        {
          "indexed": false,
          "name": "signersCount",
          "type": "uint256"
        }
      ],
      "name": "SignerAdded",
      "type": "event"
    },
    {
      "anonymous": false,
      "inputs": [
        {
          "indexed": true,
          "name": "previousOwner",
          "type": "address"
        },
        {
          "indexed": true,
          "name": "newOwner",
          "type": "address"
        }
      ],
      "name": "OwnershipTransferred",
      "type": "event"
    },
    {
      "anonymous": false,
      "inputs": [
        {
          "indexed": true,
          "name": "previousRepo",
          "type": "address"
        },
        {
          "indexed": true,
          "name": "newRepo",
          "type": "address"
        }
      ],
      "name": "RegistrySwitch",
      "type": "event"
    },
    {
      "constant": false,
      "inputs": [
        {
          "name": "signer",
          "type": "address"
        }
      ],
      "name": "addSigner",
      "outputs": [],
      "payable": false,
      "stateMutability": "nonpayable",
      "type": "function"
    },
    {
      "constant": false,
      "inputs": [
        {
          "name": "message",
          "type": "string"
        },
        {
          "name": "sig",
          "type": "bytes"
        }
      ],
      "name": "sign",
      "outputs": [],
      "payable": false,
      "stateMutability": "nonpayable",
      "type": "function"
    },
    {
      "constant": true,
      "inputs": [
        {
          "name": "signerAddress",
          "type": "address"
        }
      ],
      "name": "hasSigned",
      "outputs": [
        {
          "name": "",
          "type": "bool"
        }
      ],
      "payable": false,
      "stateMutability": "view",
      "type": "function"
    },
    {
      "constant": true,
      "inputs": [
        {
          "name": "ndx",
          "type": "uint256"
        }
      ],
      "name": "singleSignatory",
      "outputs": [
        {
          "name": "",
          "type": "address"
        },
        {
          "name": "",
          "type": "bytes32"
        },
        {
          "name": "",
          "type": "bytes"
        }
      ],
      "payable": false,
      "stateMutability": "view",
      "type": "function"
    },
    {
      "constant": true,
      "inputs": [],
      "name": "signatureCount",
      "outputs": [
        {
          "name": "",
          "type": "uint256"
        }
      ],
      "payable": false,
      "stateMutability": "view",
      "type": "function"
    },
    {
      "constant": true,
      "inputs": [],
      "name": "signersCount",
      "outputs": [
        {
          "name": "",
          "type": "uint256"
        }
      ],
      "payable": false,
      "stateMutability": "view",
      "type": "function"
    }
  ],
  "bytecode": "0x60806040523480156200001157600080fd5b5060405162001ad138038062001ad183398101806040528101908080519060200190929190805182019291906020018051906020019092919080519060200190929190805190602001909291908051906020019092919050505033600160006101000a81548173ffffffffffffffffffffffffffffffffffffffff021916908373ffffffffffffffffffffffffffffffffffffffff160217905550856002819055508460039080519060200190620000cb929190620001a5565b508360048160001916905550826000806101000a81548173ffffffffffffffffffffffffffffffffffffffff021916908373ffffffffffffffffffffffffffffffffffffffff16021790555081600760006101000a81548173ffffffffffffffffffffffffffffffffffffffff021916908373ffffffffffffffffffffffffffffffffffffffff16021790555080600860006101000a81548173ffffffffffffffffffffffffffffffffffffffff021916908373ffffffffffffffffffffffffffffffffffffffff16021790555050505050505062000254565b828054600181600116156101000203166002900490600052602060002090601f016020900481019282601f10620001e857805160ff191683800117855562000219565b8280016001018555821562000219579182015b8281111562000218578251825591602001919060010190620001fb565b5b5090506200022891906200022c565b5090565b6200025191905b808211156200024d57600081600090555060010162000233565b5090565b90565b61186d80620002646000396000f3006080604052600436106100f1576000357c0100000000000000000000000000000000000000000000000000000000900463ffffffff1680631548305d146100f65780632079fb9a1461014d578063487c2091146101ba578063535133fd146101ed5780637836d52d1461027d5780637b103999146103655780638be10194146103bc5780638da5cb5b146104a45780638f199545146104fb578063af640d0f1461054e578063bf6a141314610579578063d3d7ee3e146105d4578063d7b4bbc814610617578063e40956b11461066e578063e7f55ed614610699578063eb12d61e146106c4578063f2fde38b14610707575b600080fd5b34801561010257600080fd5b5061010b61074a565b604051808273ffffffffffffffffffffffffffffffffffffffff1673ffffffffffffffffffffffffffffffffffffffff16815260200191505060405180910390f35b34801561015957600080fd5b5061017860048036038101908080359060200190929190505050610770565b604051808273ffffffffffffffffffffffffffffffffffffffff1673ffffffffffffffffffffffffffffffffffffffff16815260200191505060405180910390f35b3480156101c657600080fd5b506101cf6107ae565b60405180826000191660001916815260200191505060405180910390f35b3480156101f957600080fd5b506102026107b4565b6040518080602001828103825283818151815260200191508051906020019080838360005b83811015610242578082015181840152602081019050610227565b50505050905090810190601f16801561026f5780820380516001836020036101000a031916815260200191505b509250505060405180910390f35b34801561028957600080fd5b506102a860048036038101908080359060200190929190505050610852565b604051808473ffffffffffffffffffffffffffffffffffffffff1673ffffffffffffffffffffffffffffffffffffffff168152602001836000191660001916815260200180602001828103825283818151815260200191508051906020019080838360005b8381101561032857808201518184015260208101905061030d565b50505050905090810190601f1680156103555780820380516001836020036101000a031916815260200191505b5094505050505060405180910390f35b34801561037157600080fd5b5061037a610982565b604051808273ffffffffffffffffffffffffffffffffffffffff1673ffffffffffffffffffffffffffffffffffffffff16815260200191505060405180910390f35b3480156103c857600080fd5b506103e7600480360381019080803590602001909291905050506109a8565b604051808473ffffffffffffffffffffffffffffffffffffffff1673ffffffffffffffffffffffffffffffffffffffff168152602001836000191660001916815260200180602001828103825283818151815260200191508051906020019080838360005b8381101561046757808201518184015260208101905061044c565b50505050905090810190601f1680156104945780820380516001836020036101000a031916815260200191505b5094505050505060405180910390f35b3480156104b057600080fd5b506104b9610a99565b604051808273ffffffffffffffffffffffffffffffffffffffff1673ffffffffffffffffffffffffffffffffffffffff16815260200191505060405180910390f35b34801561050757600080fd5b5061054c600480360381019080803590602001908201803590602001919091929391929390803590602001908201803590602001919091929391929390505050610abe565b005b34801561055a57600080fd5b50610563610d5d565b6040518082815260200191505060405180910390f35b34801561058557600080fd5b506105ba600480360381019080803573ffffffffffffffffffffffffffffffffffffffff169060200190929190505050610d63565b604051808215151515815260200191505060405180910390f35b3480156105e057600080fd5b50610615600480360381019080803573ffffffffffffffffffffffffffffffffffffffff169060200190929190505050610e21565b005b34801561062357600080fd5b5061062c610f79565b604051808273ffffffffffffffffffffffffffffffffffffffff1673ffffffffffffffffffffffffffffffffffffffff16815260200191505060405180910390f35b34801561067a57600080fd5b50610683610f9f565b6040518082815260200191505060405180910390f35b3480156106a557600080fd5b506106ae610fac565b6040518082815260200191505060405180910390f35b3480156106d057600080fd5b50610705600480360381019080803573ffffffffffffffffffffffffffffffffffffffff169060200190929190505050610fb9565b005b34801561071357600080fd5b50610748600480360381019080803573ffffffffffffffffffffffffffffffffffffffff1690602001909291905050506113dd565b005b600860009054906101000a900473ffffffffffffffffffffffffffffffffffffffff1681565b60058181548110151561077f57fe5b906000526020600020016000915054906101000a900473ffffffffffffffffffffffffffffffffffffffff1681565b60045481565b60038054600181600116156101000203166002900480601f01602080910402602001604051908101604052809291908181526020018280546001816001161561010002031660029004801561084a5780601f1061081f5761010080835404028352916020019161084a565b820191906000526020600020905b81548152906001019060200180831161082d57829003601f168201915b505050505081565b600080606060068481548110151561086657fe5b906000526020600020906003020160000160009054906101000a900473ffffffffffffffffffffffffffffffffffffffff166006858154811015156108a757fe5b9060005260206000209060030201600101546006868154811015156108c857fe5b9060005260206000209060030201600201808054600181600116156101000203166002900480601f01602080910402602001604051908101604052809291908181526020018280546001816001161561010002031660029004801561096e5780601f106109435761010080835404028352916020019161096e565b820191906000526020600020905b81548152906001019060200180831161095157829003601f168201915b505050505090509250925092509193909250565b600160009054906101000a900473ffffffffffffffffffffffffffffffffffffffff1681565b6006818154811015156109b757fe5b90600052602060002090600302016000915090508060000160009054906101000a900473ffffffffffffffffffffffffffffffffffffffff1690806001015490806002018054600181600116156101000203166002900480601f016020809104026020016040519081016040528092919081815260200182805460018160011615610100020316600290048015610a8f5780601f10610a6457610100808354040283529160200191610a8f565b820191906000526020600020905b815481529060010190602001808311610a7257829003601f168201915b5050505050905083565b6000809054906101000a900473ffffffffffffffffffffffffffffffffffffffff1681565b600080610aca33611533565b1515610ad557600080fd5b610ade33610d63565b151515610aea57600080fd5b610b2586868080601f0160208091040260200160405190810160405280939291908181526020018383808284378201915050505050506115d6565b91503373ffffffffffffffffffffffffffffffffffffffff16610b7a8386868080601f0160208091040260200160405190810160405280939291908181526020018383808284378201915050505050506116a4565b73ffffffffffffffffffffffffffffffffffffffff16141515610b9c57600080fd5b60066060604051908101604052803373ffffffffffffffffffffffffffffffffffffffff1681526020018460001916815260200186868080601f0160208091040260200160405190810160405280939291908181526020018383808284378201915050505050508152509080600181540180825580915050906001820390600052602060002090600302016000909192909190915060008201518160000160006101000a81548173ffffffffffffffffffffffffffffffffffffffff021916908373ffffffffffffffffffffffffffffffffffffffff160217905550602082015181600101906000191690556040820151816002019080519060200190610ca492919061179c565b50505090507f853d14480561223bcf0c9e2441f3eff05abbcfaee4929223da58a69d92214873303383600580549050604051808573ffffffffffffffffffffffffffffffffffffffff1673ffffffffffffffffffffffffffffffffffffffff1681526020018473ffffffffffffffffffffffffffffffffffffffff1673ffffffffffffffffffffffffffffffffffffffff16815260200183815260200182815260200194505050505060405180910390a1505050505050565b60025481565b600080610d6f83611533565b1515610d7a57600080fd5b600090505b600680549050811015610e16578273ffffffffffffffffffffffffffffffffffffffff16600682815481101515610db257fe5b906000526020600020906003020160000160009054906101000a900473ffffffffffffffffffffffffffffffffffffffff1673ffffffffffffffffffffffffffffffffffffffff161415610e095760019150610e1b565b8080600101915050610d7f565b600091505b50919050565b600160009054906101000a900473ffffffffffffffffffffffffffffffffffffffff1673ffffffffffffffffffffffffffffffffffffffff163373ffffffffffffffffffffffffffffffffffffffff16141515610e7d57600080fd5b600073ffffffffffffffffffffffffffffffffffffffff168173ffffffffffffffffffffffffffffffffffffffff1614151515610eb957600080fd5b8073ffffffffffffffffffffffffffffffffffffffff16600160009054906101000a900473ffffffffffffffffffffffffffffffffffffffff1673ffffffffffffffffffffffffffffffffffffffff167f8755b4ea006e11f39ff16bce682fa637f15d03dd0d81c6f820a7ca2511b5bfd460405160405180910390a380600160006101000a81548173ffffffffffffffffffffffffffffffffffffffff021916908373ffffffffffffffffffffffffffffffffffffffff16021790555050565b600760009054906101000a900473ffffffffffffffffffffffffffffffffffffffff1681565b6000600580549050905090565b6000600680549050905090565b60008060009054906101000a900473ffffffffffffffffffffffffffffffffffffffff1673ffffffffffffffffffffffffffffffffffffffff163373ffffffffffffffffffffffffffffffffffffffff1614151561101657600080fd5b600760009054906101000a900473ffffffffffffffffffffffffffffffffffffffff1673ffffffffffffffffffffffffffffffffffffffff166328a4cc30836040518263ffffffff167c0100000000000000000000000000000000000000000000000000000000028152600401808273ffffffffffffffffffffffffffffffffffffffff1673ffffffffffffffffffffffffffffffffffffffff168152602001915050600060405180830381600087803b1580156110d357600080fd5b505af11580156110e7573d6000803e3d6000fd5b50505050600760009054906101000a900473ffffffffffffffffffffffffffffffffffffffff1673ffffffffffffffffffffffffffffffffffffffff166313e32bdb836040518263ffffffff167c0100000000000000000000000000000000000000000000000000000000028152600401808273ffffffffffffffffffffffffffffffffffffffff1673ffffffffffffffffffffffffffffffffffffffff168152602001915050600060405180830381600087803b1580156111a857600080fd5b505af11580156111bc573d6000803e3d6000fd5b5050505060058290806001815401808255809150509060018203906000526020600020016000909192909190916101000a81548173ffffffffffffffffffffffffffffffffffffffff021916908373ffffffffffffffffffffffffffffffffffffffff1602179055509050600860009054906101000a900473ffffffffffffffffffffffffffffffffffffffff1673ffffffffffffffffffffffffffffffffffffffff1663b1efcbda836002546040518363ffffffff167c0100000000000000000000000000000000000000000000000000000000028152600401808373ffffffffffffffffffffffffffffffffffffffff1673ffffffffffffffffffffffffffffffffffffffff16815260200182815260200192505050600060405180830381600087803b1580156112ee57600080fd5b505af1158015611302573d6000803e3d6000fd5b505050507f24dcea8c6829d2830313a24c986ed795f78c1f1713f006f2578356baf2d1c43b30338484604051808573ffffffffffffffffffffffffffffffffffffffff1673ffffffffffffffffffffffffffffffffffffffff1681526020018473ffffffffffffffffffffffffffffffffffffffff1673ffffffffffffffffffffffffffffffffffffffff1681526020018373ffffffffffffffffffffffffffffffffffffffff1673ffffffffffffffffffffffffffffffffffffffff16815260200182815260200194505050505060405180910390a15050565b600160009054906101000a900473ffffffffffffffffffffffffffffffffffffffff1673ffffffffffffffffffffffffffffffffffffffff163373ffffffffffffffffffffffffffffffffffffffff1614151561143957600080fd5b600073ffffffffffffffffffffffffffffffffffffffff168173ffffffffffffffffffffffffffffffffffffffff161415151561147557600080fd5b8073ffffffffffffffffffffffffffffffffffffffff166000809054906101000a900473ffffffffffffffffffffffffffffffffffffffff1673ffffffffffffffffffffffffffffffffffffffff167f8be0079c531659141344cd1fd0a4f28419497f9722a3daafe3b4186f6b6457e060405160405180910390a3806000806101000a81548173ffffffffffffffffffffffffffffffffffffffff021916908373ffffffffffffffffffffffffffffffffffffffff16021790555050565b600080600090505b6005805490508110156115cb578273ffffffffffffffffffffffffffffffffffffffff1660058281548110151561156e57fe5b9060005260206000200160009054906101000a900473ffffffffffffffffffffffffffffffffffffffff1673ffffffffffffffffffffffffffffffffffffffff1614156115be57600191506115d0565b808060010191505061153b565b600091505b50919050565b600060405180807f737472696e67206d657373616765000000000000000000000000000000000000815250600e0190506040518091039020826040518082805190602001908083835b602083101515611644578051825260208201915060208101905060208303925061161f565b6001836020036101000a038019825116818451168082178552505050505050905001915050604051809103902060405180836000191660001916815260200182600019166000191681526020019250505060405180910390209050919050565b600080600080604185511415156116be5760009350611793565b6020850151925060408501519150606085015160001a9050601b8160ff1610156116e957601b810190505b601b8160ff16141580156117015750601c8160ff1614155b1561170f5760009350611793565b600186828585604051600081526020016040526040518085600019166000191681526020018460ff1660ff1681526020018360001916600019168152602001826000191660001916815260200194505050505060206040516020810390808403906000865af1158015611786573d6000803e3d6000fd5b5050506020604051035193505b50505092915050565b828054600181600116156101000203166002900490600052602060002090601f016020900481019282601f106117dd57805160ff191683800117855561180b565b8280016001018555821561180b579182015b8281111561180a5782518255916020019190600101906117ef565b5b509050611818919061181c565b5090565b61183e91905b8082111561183a576000816000905550600101611822565b5090565b905600a165627a7a7230582012d5a2ecf62319f6ed4f6009e7501bc004601d874d80b9c1b1afd7e1c8611f400029",
  "source": "pragma solidity ^0.4.18;\r\n\r\nimport \"./SignableDocument.sol\";\r\n\r\nimport \"./CustomOwnership.sol\";\r\n\r\nimport \"openzeppelin-solidity/contracts/ECRecovery.sol\";\r\n\r\nimport \"./SelfSignatureVerifiable.sol\";\r\n\r\nimport \"./IdentitiesIntf.sol\";\r\n\r\nimport \"./DocumentsIntf.sol\";\r\n\r\n\r\n/**\r\n@title Document\r\n@author Eldon Hipolito\r\n@dev The document contract\r\n*/\r\ncontract Document is CustomOwnership, SignableDocument {\r\n\r\n    struct Signatory {\r\n        address signer;\r\n        bytes32 data;\r\n        bytes signature;\r\n    }\r\n\r\n    uint256 public id;\r\n\r\n    string public docName;\r\n\r\n    bytes32 public checksum;\r\n\r\n    address[] public signers;\r\n\r\n    Signatory[] public signatures;\r\n\r\n    IdentitiesIntf public identitiesAdd;\r\n    \r\n    DocumentsIntf public documentsAdd;\r\n\r\n    event DocumentSigned(address docAddress, address signer, uint totalSigned, uint signersCount);\r\n\r\n    event SignerAdded(address docAddress, address owner, address signer, uint signersCount);\r\n\r\n    /**\r\n    @dev - ctor\r\n     */\r\n    function Document(uint256 _id, string _docName, bytes32 _checksum, address _owner, address _identitiesAdd, address _documentsIntf) public {\r\n        id = _id;\r\n        docName = _docName;\r\n        checksum = _checksum;\r\n        owner = _owner;\r\n        identitiesAdd = IdentitiesIntf(_identitiesAdd);\r\n        documentsAdd = DocumentsIntf(_documentsIntf);\r\n    }\r\n    /**\r\n    @dev - Add signer\r\n    @param signer - address of the signer\r\n    */\r\n    function addSigner(address signer) external onlyOwner {\r\n        identitiesAdd.checkVerifiedRole(signer);\r\n        identitiesAdd.checkSignerRole(signer);\r\n        uint length = signers.push(signer);\r\n\r\n        documentsAdd.registerSignerToDoc(signer, id);\r\n        emit SignerAdded(address(this), msg.sender, signer, length);\r\n    }\r\n    /**\r\n    @dev - Sign function for signers\r\n    @param message - keccak256 representation of the message signed.\r\n    @param sig - message signed with the private key of the signer using ECDSA algorithm provided in web3\r\n    */\r\n    function sign(string message, bytes sig) external {\r\n        require(isSigner(msg.sender));\r\n        require(!hasSigned(msg.sender));\r\n        bytes32 hashed = hashDataForSig(message);\r\n        require(ECRecovery.recover(hashed, sig) == msg.sender);\r\n\r\n        uint totalSigned = signatures.push(Signatory(msg.sender, hashed, sig));\r\n\r\n        emit DocumentSigned(address(this), msg.sender, totalSigned, signers.length);\r\n    }\r\n\r\n    function hashDataForSig(string message) internal pure returns (bytes32) {\r\n        return keccak256(keccak256(\"string message\"),keccak256(message));\r\n    }\r\n\r\n    function isSigner(address signerAddress) internal view returns (bool){\r\n        for (uint i = 0; i < signers.length; i++) {\r\n            if (signers[i] == signerAddress) {\r\n                return true;\r\n            }\r\n        }\r\n\r\n        return false;\r\n    }\r\n\r\n    function hasSigned(address signerAddress) public view returns (bool) {\r\n        require(isSigner(signerAddress));\r\n        for (uint i = 0; i < signatures.length; i++) {\r\n            if (signatures[i].signer == signerAddress) {\r\n                return true;\r\n            }\r\n        }\r\n\r\n        return false;\r\n    }\r\n\r\n    function singleSignatory(uint ndx) external view returns (address, bytes32, bytes) {\r\n        return (signatures[ndx].signer, signatures[ndx].data, signatures[ndx].signature);\r\n    }\r\n\r\n    function signatureCount() external view returns(uint) {\r\n        return signatures.length;\r\n    }\r\n\r\n    function signersCount() external view returns(uint) {\r\n        return signers.length;\r\n    }\r\n\r\n\r\n\r\n\r\n}\r\n",
  "sourcePath": "C:\\Users\\User.Admin\\Desktop\\sol-workspace\\react-dmsmc\\contracts\\Document.sol",
  "compiler": {
    "name": "solc",
    "version": "0.4.23+commit.124ca40d.Emscripten.clang"
  },
  "schemaVersion": "2.0.0",
  "updatedAt": "2018-07-12T10:47:49.364Z"
}