{
  "contractName": "Documents",
  "abi": [
    {
      "constant": true,
      "inputs": [
        {
          "name": "",
          "type": "address"
        },
        {
          "name": "",
          "type": "uint256"
        }
      ],
      "name": "signerDocuments",
      "outputs": [
        {
          "name": "",
          "type": "uint256"
        }
      ],
      "payable": false,
      "stateMutability": "view",
      "type": "function"
    },
    {
      "constant": true,
      "inputs": [],
      "name": "count",
      "outputs": [
        {
          "name": "",
          "type": "uint256"
        }
      ],
      "payable": false,
      "stateMutability": "view",
      "type": "function"
    },
    {
      "constant": true,
      "inputs": [
        {
          "name": "",
          "type": "address"
        },
        {
          "name": "",
          "type": "uint256"
        }
      ],
      "name": "documentOwnership",
      "outputs": [
        {
          "name": "",
          "type": "uint256"
        }
      ],
      "payable": false,
      "stateMutability": "view",
      "type": "function"
    },
    {
      "constant": true,
      "inputs": [],
      "name": "owner",
      "outputs": [
        {
          "name": "",
          "type": "address"
        }
      ],
      "payable": false,
      "stateMutability": "view",
      "type": "function"
    },
    {
      "constant": true,
      "inputs": [
        {
          "name": "",
          "type": "uint256"
        }
      ],
      "name": "documents",
      "outputs": [
        {
          "name": "",
          "type": "address"
        }
      ],
      "payable": false,
      "stateMutability": "view",
      "type": "function"
    },
    {
      "constant": true,
      "inputs": [],
      "name": "identitiesAdd",
      "outputs": [
        {
          "name": "",
          "type": "address"
        }
      ],
      "payable": false,
      "stateMutability": "view",
      "type": "function"
    },
    {
      "constant": false,
      "inputs": [
        {
          "name": "newOwner",
          "type": "address"
        }
      ],
      "name": "transferOwnership",
      "outputs": [],
      "payable": false,
      "stateMutability": "nonpayable",
      "type": "function"
    },
    {
      "inputs": [
        {
          "name": "_identitiesAdd",
          "type": "address"
        }
      ],
      "payable": false,
      "stateMutability": "nonpayable",
      "type": "constructor"
    },
    {
      "anonymous": false,
      "inputs": [
        {
          "indexed": false,
          "name": "id",
          "type": "uint256"
        },
        {
          "indexed": false,
          "name": "document",
          "type": "address"
        },
        {
          "indexed": false,
          "name": "creator",
          "type": "address"
        }
      ],
      "name": "DocumentCreated",
      "type": "event"
    },
    {
      "anonymous": false,
      "inputs": [
        {
          "indexed": false,
          "name": "documentId",
          "type": "uint256"
        },
        {
          "indexed": false,
          "name": "previousOwner",
          "type": "address"
        },
        {
          "indexed": false,
          "name": "newOwner",
          "type": "address"
        }
      ],
      "name": "DocumentOwnershipTransferred",
      "type": "event"
    },
    {
      "anonymous": false,
      "inputs": [
        {
          "indexed": true,
          "name": "previousOwner",
          "type": "address"
        },
        {
          "indexed": true,
          "name": "newOwner",
          "type": "address"
        }
      ],
      "name": "OwnershipTransferred",
      "type": "event"
    },
    {
      "constant": true,
      "inputs": [],
      "name": "ownedDocCount",
      "outputs": [
        {
          "name": "",
          "type": "uint256"
        }
      ],
      "payable": false,
      "stateMutability": "view",
      "type": "function"
    },
    {
      "constant": true,
      "inputs": [
        {
          "name": "ndx",
          "type": "uint256"
        }
      ],
      "name": "ownedDocument",
      "outputs": [
        {
          "name": "",
          "type": "address"
        }
      ],
      "payable": false,
      "stateMutability": "view",
      "type": "function"
    },
    {
      "constant": false,
      "inputs": [
        {
          "name": "_docName",
          "type": "string"
        },
        {
          "name": "_checksum",
          "type": "bytes32"
        }
      ],
      "name": "createDocument",
      "outputs": [],
      "payable": false,
      "stateMutability": "nonpayable",
      "type": "function"
    },
    {
      "constant": false,
      "inputs": [
        {
          "name": "documentId",
          "type": "uint256"
        },
        {
          "name": "newOwner",
          "type": "address"
        }
      ],
      "name": "transferDocumentOwnership",
      "outputs": [],
      "payable": false,
      "stateMutability": "nonpayable",
      "type": "function"
    },
    {
      "constant": false,
      "inputs": [
        {
          "name": "_identitiesAdd",
          "type": "address"
        }
      ],
      "name": "setIdentitiesAdd",
      "outputs": [],
      "payable": false,
      "stateMutability": "nonpayable",
      "type": "function"
    },
    {
      "constant": false,
      "inputs": [
        {
          "name": "signerAddress",
          "type": "address"
        },
        {
          "name": "docId",
          "type": "uint256"
        }
      ],
      "name": "registerSignerToDoc",
      "outputs": [],
      "payable": false,
      "stateMutability": "nonpayable",
      "type": "function"
    },
    {
      "constant": true,
      "inputs": [
        {
          "name": "ndx",
          "type": "uint256"
        }
      ],
      "name": "signerDocId",
      "outputs": [
        {
          "name": "",
          "type": "uint256"
        }
      ],
      "payable": false,
      "stateMutability": "view",
      "type": "function"
    },
    {
      "constant": false,
      "inputs": [
        {
          "name": "signerAddress",
          "type": "address"
        },
        {
          "name": "ndx",
          "type": "uint256"
        }
      ],
      "name": "removeSignerToDoc",
      "outputs": [],
      "payable": false,
      "stateMutability": "nonpayable",
      "type": "function"
    },
    {
      "constant": true,
      "inputs": [],
      "name": "signerDocumentCount",
      "outputs": [
        {
          "name": "",
          "type": "uint256"
        }
      ],
      "payable": false,
      "stateMutability": "view",
      "type": "function"
    }
  ],
  "bytecode": "0x608060405234801561001057600080fd5b5060405160208061300083398101806040528101908080519060200190929190505050336000806101000a81548173ffffffffffffffffffffffffffffffffffffffff021916908373ffffffffffffffffffffffffffffffffffffffff16021790555080600560006101000a81548173ffffffffffffffffffffffffffffffffffffffff021916908373ffffffffffffffffffffffffffffffffffffffff16021790555050612f3c806100c46000396000f300608060405260043610620000f7576000357c0100000000000000000000000000000000000000000000000000000000900463ffffffff168063054f141314620000fc57806306661abd146200016057806315200741146200018e578063263662e114620001bc5780632acb4f6214620002205780632f5dcdc0146200027057806360122b0714620002e05780638da5cb5b14620003245780639efacfa0146200037e578063b1efcbda14620003ac578063c14c3fc814620003fc578063c2ed2b051462000448578063d7b4bbc814620004b8578063dcc54b351462000512578063e21f5f691462000558578063f2fde38b14620005a8575b600080fd5b3480156200010957600080fd5b506200014a600480360381019080803573ffffffffffffffffffffffffffffffffffffffff16906020019092919080359060200190929190505050620005ee565b6040518082815260200191505060405180910390f35b3480156200016d57600080fd5b50620001786200061f565b6040518082815260200191505060405180910390f35b3480156200019b57600080fd5b50620001a662000625565b6040518082815260200191505060405180910390f35b348015620001c957600080fd5b506200020a600480360381019080803573ffffffffffffffffffffffffffffffffffffffff169060200190929190803590602001909291905050506200066f565b6040518082815260200191505060405180910390f35b3480156200022d57600080fd5b506200026e60048036038101908080359060200190929190803573ffffffffffffffffffffffffffffffffffffffff169060200190929190505050620006a0565b005b3480156200027d57600080fd5b506200029e60048036038101908080359060200190929190505050620009bd565b604051808273ffffffffffffffffffffffffffffffffffffffff1673ffffffffffffffffffffffffffffffffffffffff16815260200191505060405180910390f35b348015620002ed57600080fd5b506200030e6004803603810190808035906020019092919050505062000aa7565b6040518082815260200191505060405180910390f35b3480156200033157600080fd5b506200033c62000b22565b604051808273ffffffffffffffffffffffffffffffffffffffff1673ffffffffffffffffffffffffffffffffffffffff16815260200191505060405180910390f35b3480156200038b57600080fd5b506200039662000b47565b6040518082815260200191505060405180910390f35b348015620003b957600080fd5b50620003fa600480360381019080803573ffffffffffffffffffffffffffffffffffffffff1690602001909291908035906020019092919050505062000b91565b005b3480156200040957600080fd5b5062000446600480360381019080803590602001908201803590602001919091929391929390803560001916906020019092919050505062000c80565b005b3480156200045557600080fd5b50620004766004803603810190808035906020019092919050505062000ff8565b604051808273ffffffffffffffffffffffffffffffffffffffff1673ffffffffffffffffffffffffffffffffffffffff16815260200191505060405180910390f35b348015620004c557600080fd5b50620004d06200102b565b604051808273ffffffffffffffffffffffffffffffffffffffff1673ffffffffffffffffffffffffffffffffffffffff16815260200191505060405180910390f35b3480156200051f57600080fd5b5062000556600480360381019080803573ffffffffffffffffffffffffffffffffffffffff16906020019092919050505062001051565b005b3480156200056557600080fd5b50620005a6600480360381019080803573ffffffffffffffffffffffffffffffffffffffff16906020019092919080359060200190929190505050620010f1565b005b348015620005b557600080fd5b50620005ec600480360381019080803573ffffffffffffffffffffffffffffffffffffffff169060200190929190505050620011d4565b005b6003602052816000526040600020818154811015156200060a57fe5b90600052602060002001600091509150505481565b60045481565b6000600260003373ffffffffffffffffffffffffffffffffffffffff1673ffffffffffffffffffffffffffffffffffffffff16815260200190815260200160002080549050905090565b6002602052816000526040600020818154811015156200068b57fe5b90600052602060002001600091509150505481565b60008073ffffffffffffffffffffffffffffffffffffffff166001600085815260200190815260200160002060009054906101000a900473ffffffffffffffffffffffffffffffffffffffff1673ffffffffffffffffffffffffffffffffffffffff16141515156200071157600080fd5b6200071d83336200132b565b90507fffffffffffffffffffffffffffffffffffffffffffffffffffffffffffffffff81141515156200074f57600080fd5b600560009054906101000a900473ffffffffffffffffffffffffffffffffffffffff1673ffffffffffffffffffffffffffffffffffffffff1663d8a0b2e0836040518263ffffffff167c0100000000000000000000000000000000000000000000000000000000028152600401808273ffffffffffffffffffffffffffffffffffffffff1673ffffffffffffffffffffffffffffffffffffffff168152602001915050600060405180830381600087803b1580156200080d57600080fd5b505af115801562000822573d6000803e3d6000fd5b50505050620008318162001436565b6001600084815260200190815260200160002060009054906101000a900473ffffffffffffffffffffffffffffffffffffffff1673ffffffffffffffffffffffffffffffffffffffff1663f2fde38b836040518263ffffffff167c0100000000000000000000000000000000000000000000000000000000028152600401808273ffffffffffffffffffffffffffffffffffffffff1673ffffffffffffffffffffffffffffffffffffffff168152602001915050600060405180830381600087803b1580156200090057600080fd5b505af115801562000915573d6000803e3d6000fd5b505050507f07ffd01f9c72e110c370a167f6aca57e1beb6bf97530085bc7f11c19b71544e0833384604051808481526020018373ffffffffffffffffffffffffffffffffffffffff1673ffffffffffffffffffffffffffffffffffffffff1681526020018273ffffffffffffffffffffffffffffffffffffffff1673ffffffffffffffffffffffffffffffffffffffff168152602001935050505060405180910390a1505050565b60006060600260003373ffffffffffffffffffffffffffffffffffffffff1673ffffffffffffffffffffffffffffffffffffffff16815260200190815260200160002080548060200260200160405190810160405280929190818152602001828054801562000a4c57602002820191906000526020600020905b81548152602001906001019080831162000a37575b5050505050905060016000828581518110151562000a6657fe5b90602001906020020151815260200190815260200160002060009054906101000a900473ffffffffffffffffffffffffffffffffffffffff16915050919050565b600080600360003373ffffffffffffffffffffffffffffffffffffffff1673ffffffffffffffffffffffffffffffffffffffff1681526020019081526020016000209050600081805490501415151562000b0057600080fd5b808381548110151562000b0f57fe5b9060005260206000200154915050919050565b6000809054906101000a900473ffffffffffffffffffffffffffffffffffffffff1681565b6000600360003373ffffffffffffffffffffffffffffffffffffffff1673ffffffffffffffffffffffffffffffffffffffff16815260200190815260200160002080549050905090565b600080600073ffffffffffffffffffffffffffffffffffffffff166001600085815260200190815260200160002060009054906101000a900473ffffffffffffffffffffffffffffffffffffffff1673ffffffffffffffffffffffffffffffffffffffff161415151562000c0457600080fd5b600360008573ffffffffffffffffffffffffffffffffffffffff1673ffffffffffffffffffffffffffffffffffffffff168152602001908152602001600020915081805480919060010162000c5a9190620014ef565b905082828281548110151562000c6c57fe5b906000526020600020018190555050505050565b6000600560009054906101000a900473ffffffffffffffffffffffffffffffffffffffff1673ffffffffffffffffffffffffffffffffffffffff1663d8a0b2e0336040518263ffffffff167c0100000000000000000000000000000000000000000000000000000000028152600401808273ffffffffffffffffffffffffffffffffffffffff1673ffffffffffffffffffffffffffffffffffffffff168152602001915050600060405180830381600087803b15801562000d4057600080fd5b505af115801562000d55573d6000803e3d6000fd5b5050505060046000815480929190600101919050555060045484848433600560009054906101000a900473ffffffffffffffffffffffffffffffffffffffff163062000da06200151e565b808881526020018060200186600019166000191681526020018573ffffffffffffffffffffffffffffffffffffffff1673ffffffffffffffffffffffffffffffffffffffff1681526020018473ffffffffffffffffffffffffffffffffffffffff1673ffffffffffffffffffffffffffffffffffffffff1681526020018373ffffffffffffffffffffffffffffffffffffffff1673ffffffffffffffffffffffffffffffffffffffff1681526020018281038252888882818152602001925080828437820191505098505050505050505050604051809103906000f08015801562000e8f573d6000803e3d6000fd5b5090508060016000600454815260200190815260200160002060006101000a81548173ffffffffffffffffffffffffffffffffffffffff021916908373ffffffffffffffffffffffffffffffffffffffff160217905550600260003373ffffffffffffffffffffffffffffffffffffffff1673ffffffffffffffffffffffffffffffffffffffff16815260200190815260200160002060045490806001815401808255809150509060018203906000526020600020016000909192909190915055507f88e599f91cc2127bf22e70a3a7df3b912539ec98aaa2a61ce1dce5eab03c89226004548233604051808481526020018373ffffffffffffffffffffffffffffffffffffffff1673ffffffffffffffffffffffffffffffffffffffff1681526020018273ffffffffffffffffffffffffffffffffffffffff1673ffffffffffffffffffffffffffffffffffffffff168152602001935050505060405180910390a150505050565b60016020528060005260406000206000915054906101000a900473ffffffffffffffffffffffffffffffffffffffff1681565b600560009054906101000a900473ffffffffffffffffffffffffffffffffffffffff1681565b6000809054906101000a900473ffffffffffffffffffffffffffffffffffffffff1673ffffffffffffffffffffffffffffffffffffffff163373ffffffffffffffffffffffffffffffffffffffff16141515620010ad57600080fd5b80600560006101000a81548173ffffffffffffffffffffffffffffffffffffffff021916908373ffffffffffffffffffffffffffffffffffffffff16021790555050565b6000600360008473ffffffffffffffffffffffffffffffffffffffff1673ffffffffffffffffffffffffffffffffffffffff1681526020019081526020016000209050600081838154811015156200114557fe5b90600052602060002001541015156200115d57600080fd5b80828154811015156200116c57fe5b90600052602060002001600090558060018280549050038154811015156200119057fe5b90600052602060002001548183815481101515620011aa57fe5b906000526020600020018190555080805480919060019003620011ce9190620014ef565b50505050565b6000809054906101000a900473ffffffffffffffffffffffffffffffffffffffff1673ffffffffffffffffffffffffffffffffffffffff163373ffffffffffffffffffffffffffffffffffffffff161415156200123057600080fd5b600073ffffffffffffffffffffffffffffffffffffffff168173ffffffffffffffffffffffffffffffffffffffff16141515156200126d57600080fd5b8073ffffffffffffffffffffffffffffffffffffffff166000809054906101000a900473ffffffffffffffffffffffffffffffffffffffff1673ffffffffffffffffffffffffffffffffffffffff167f8be0079c531659141344cd1fd0a4f28419497f9722a3daafe3b4186f6b6457e060405160405180910390a3806000806101000a81548173ffffffffffffffffffffffffffffffffffffffff021916908373ffffffffffffffffffffffffffffffffffffffff16021790555050565b600060606000600260008573ffffffffffffffffffffffffffffffffffffffff1673ffffffffffffffffffffffffffffffffffffffff168152602001908152602001600020805480602002602001604051908101604052809291908181526020018280548015620013bc57602002820191906000526020600020905b815481526020019060010190808311620013a7575b50505050509150600090505b81518110156200140a57848282815181101515620013e257fe5b906020019060200201511415620013fc578092506200142e565b8080600101915050620013c8565b7fffffffffffffffffffffffffffffffffffffffffffffffffffffffffffffffff92505b505092915050565b6000600260003373ffffffffffffffffffffffffffffffffffffffff1673ffffffffffffffffffffffffffffffffffffffff168152602001908152602001600020905080828154811015156200148857fe5b9060005260206000200160009055806001828054905003815481101515620014ac57fe5b90600052602060002001548183815481101515620014c657fe5b906000526020600020018190555080805480919060019003620014ea9190620014ef565b505050565b81548183558181111562001519578183600052602060002091820191016200151891906200152f565b5b505050565b6040516119b9806200155883390190565b6200155491905b808211156200155057600081600090555060010162001536565b5090565b90560060806040523480156200001157600080fd5b50604051620019b9380380620019b983398101806040528101908080519060200190929190805182019291906020018051906020019092919080519060200190929190805190602001909291908051906020019092919050505033600160006101000a81548173ffffffffffffffffffffffffffffffffffffffff021916908373ffffffffffffffffffffffffffffffffffffffff160217905550856002819055508460039080519060200190620000cb929190620001a5565b508360048160001916905550826000806101000a81548173ffffffffffffffffffffffffffffffffffffffff021916908373ffffffffffffffffffffffffffffffffffffffff16021790555081600760006101000a81548173ffffffffffffffffffffffffffffffffffffffff021916908373ffffffffffffffffffffffffffffffffffffffff16021790555080600860006101000a81548173ffffffffffffffffffffffffffffffffffffffff021916908373ffffffffffffffffffffffffffffffffffffffff16021790555050505050505062000254565b828054600181600116156101000203166002900490600052602060002090601f016020900481019282601f10620001e857805160ff191683800117855562000219565b8280016001018555821562000219579182015b8281111562000218578251825591602001919060010190620001fb565b5b5090506200022891906200022c565b5090565b6200025191905b808211156200024d57600081600090555060010162000233565b5090565b90565b61175580620002646000396000f3006080604052600436106100f1576000357c0100000000000000000000000000000000000000000000000000000000900463ffffffff1680631548305d146100f65780632079fb9a1461014d578063365e250b146101ba578063487c209114610203578063535133fd146102365780637836d52d146102c65780637b103999146103ae5780638be10194146104055780638da5cb5b146104ed578063af640d0f14610544578063bf6a14131461056f578063d3d7ee3e146105ca578063d7b4bbc81461060d578063e40956b114610664578063e7f55ed61461068f578063eb12d61e146106ba578063f2fde38b146106fd575b600080fd5b34801561010257600080fd5b5061010b610740565b604051808273ffffffffffffffffffffffffffffffffffffffff1673ffffffffffffffffffffffffffffffffffffffff16815260200191505060405180910390f35b34801561015957600080fd5b5061017860048036038101908080359060200190929190505050610766565b604051808273ffffffffffffffffffffffffffffffffffffffff1673ffffffffffffffffffffffffffffffffffffffff16815260200191505060405180910390f35b3480156101c657600080fd5b5061020160048036038101908080356000191690602001909291908035906020019082018035906020019190919293919293905050506107a4565b005b34801561020f57600080fd5b50610218610a03565b60405180826000191660001916815260200191505060405180910390f35b34801561024257600080fd5b5061024b610a09565b6040518080602001828103825283818151815260200191508051906020019080838360005b8381101561028b578082015181840152602081019050610270565b50505050905090810190601f1680156102b85780820380516001836020036101000a031916815260200191505b509250505060405180910390f35b3480156102d257600080fd5b506102f160048036038101908080359060200190929190505050610aa7565b604051808473ffffffffffffffffffffffffffffffffffffffff1673ffffffffffffffffffffffffffffffffffffffff168152602001836000191660001916815260200180602001828103825283818151815260200191508051906020019080838360005b83811015610371578082015181840152602081019050610356565b50505050905090810190601f16801561039e5780820380516001836020036101000a031916815260200191505b5094505050505060405180910390f35b3480156103ba57600080fd5b506103c3610bd7565b604051808273ffffffffffffffffffffffffffffffffffffffff1673ffffffffffffffffffffffffffffffffffffffff16815260200191505060405180910390f35b34801561041157600080fd5b5061043060048036038101908080359060200190929190505050610bfd565b604051808473ffffffffffffffffffffffffffffffffffffffff1673ffffffffffffffffffffffffffffffffffffffff168152602001836000191660001916815260200180602001828103825283818151815260200191508051906020019080838360005b838110156104b0578082015181840152602081019050610495565b50505050905090810190601f1680156104dd5780820380516001836020036101000a031916815260200191505b5094505050505060405180910390f35b3480156104f957600080fd5b50610502610cee565b604051808273ffffffffffffffffffffffffffffffffffffffff1673ffffffffffffffffffffffffffffffffffffffff16815260200191505060405180910390f35b34801561055057600080fd5b50610559610d13565b6040518082815260200191505060405180910390f35b34801561057b57600080fd5b506105b0600480360381019080803573ffffffffffffffffffffffffffffffffffffffff169060200190929190505050610d19565b604051808215151515815260200191505060405180910390f35b3480156105d657600080fd5b5061060b600480360381019080803573ffffffffffffffffffffffffffffffffffffffff169060200190929190505050610dd7565b005b34801561061957600080fd5b50610622610f2f565b604051808273ffffffffffffffffffffffffffffffffffffffff1673ffffffffffffffffffffffffffffffffffffffff16815260200191505060405180910390f35b34801561067057600080fd5b50610679610f55565b6040518082815260200191505060405180910390f35b34801561069b57600080fd5b506106a4610f62565b6040518082815260200191505060405180910390f35b3480156106c657600080fd5b506106fb600480360381019080803573ffffffffffffffffffffffffffffffffffffffff169060200190929190505050610f6f565b005b34801561070957600080fd5b5061073e600480360381019080803573ffffffffffffffffffffffffffffffffffffffff169060200190929190505050611393565b005b600860009054906101000a900473ffffffffffffffffffffffffffffffffffffffff1681565b60058181548110151561077557fe5b906000526020600020016000915054906101000a900473ffffffffffffffffffffffffffffffffffffffff1681565b60006107af336114e9565b15156107ba57600080fd5b6107c333610d19565b1515156107cf57600080fd5b3373ffffffffffffffffffffffffffffffffffffffff166108228585858080601f01602080910402602001604051908101604052809392919081815260200183838082843782019150505050505061158c565b73ffffffffffffffffffffffffffffffffffffffff1614151561084457600080fd5b60066060604051908101604052803373ffffffffffffffffffffffffffffffffffffffff1681526020018660001916815260200185858080601f0160208091040260200160405190810160405280939291908181526020018383808284378201915050505050508152509080600181540180825580915050906001820390600052602060002090600302016000909192909190915060008201518160000160006101000a81548173ffffffffffffffffffffffffffffffffffffffff021916908373ffffffffffffffffffffffffffffffffffffffff16021790555060208201518160010190600019169055604082015181600201908051906020019061094c929190611684565b50505090507f853d14480561223bcf0c9e2441f3eff05abbcfaee4929223da58a69d92214873303383600680549050604051808573ffffffffffffffffffffffffffffffffffffffff1673ffffffffffffffffffffffffffffffffffffffff1681526020018473ffffffffffffffffffffffffffffffffffffffff1673ffffffffffffffffffffffffffffffffffffffff16815260200183815260200182815260200194505050505060405180910390a150505050565b60045481565b60038054600181600116156101000203166002900480601f016020809104026020016040519081016040528092919081815260200182805460018160011615610100020316600290048015610a9f5780601f10610a7457610100808354040283529160200191610a9f565b820191906000526020600020905b815481529060010190602001808311610a8257829003601f168201915b505050505081565b6000806060600684815481101515610abb57fe5b906000526020600020906003020160000160009054906101000a900473ffffffffffffffffffffffffffffffffffffffff16600685815481101515610afc57fe5b906000526020600020906003020160010154600686815481101515610b1d57fe5b9060005260206000209060030201600201808054600181600116156101000203166002900480601f016020809104026020016040519081016040528092919081815260200182805460018160011615610100020316600290048015610bc35780601f10610b9857610100808354040283529160200191610bc3565b820191906000526020600020905b815481529060010190602001808311610ba657829003601f168201915b505050505090509250925092509193909250565b600160009054906101000a900473ffffffffffffffffffffffffffffffffffffffff1681565b600681815481101515610c0c57fe5b90600052602060002090600302016000915090508060000160009054906101000a900473ffffffffffffffffffffffffffffffffffffffff1690806001015490806002018054600181600116156101000203166002900480601f016020809104026020016040519081016040528092919081815260200182805460018160011615610100020316600290048015610ce45780601f10610cb957610100808354040283529160200191610ce4565b820191906000526020600020905b815481529060010190602001808311610cc757829003601f168201915b5050505050905083565b6000809054906101000a900473ffffffffffffffffffffffffffffffffffffffff1681565b60025481565b600080610d25836114e9565b1515610d3057600080fd5b600090505b600680549050811015610dcc578273ffffffffffffffffffffffffffffffffffffffff16600682815481101515610d6857fe5b906000526020600020906003020160000160009054906101000a900473ffffffffffffffffffffffffffffffffffffffff1673ffffffffffffffffffffffffffffffffffffffff161415610dbf5760019150610dd1565b8080600101915050610d35565b600091505b50919050565b600160009054906101000a900473ffffffffffffffffffffffffffffffffffffffff1673ffffffffffffffffffffffffffffffffffffffff163373ffffffffffffffffffffffffffffffffffffffff16141515610e3357600080fd5b600073ffffffffffffffffffffffffffffffffffffffff168173ffffffffffffffffffffffffffffffffffffffff1614151515610e6f57600080fd5b8073ffffffffffffffffffffffffffffffffffffffff16600160009054906101000a900473ffffffffffffffffffffffffffffffffffffffff1673ffffffffffffffffffffffffffffffffffffffff167f8755b4ea006e11f39ff16bce682fa637f15d03dd0d81c6f820a7ca2511b5bfd460405160405180910390a380600160006101000a81548173ffffffffffffffffffffffffffffffffffffffff021916908373ffffffffffffffffffffffffffffffffffffffff16021790555050565b600760009054906101000a900473ffffffffffffffffffffffffffffffffffffffff1681565b6000600580549050905090565b6000600680549050905090565b60008060009054906101000a900473ffffffffffffffffffffffffffffffffffffffff1673ffffffffffffffffffffffffffffffffffffffff163373ffffffffffffffffffffffffffffffffffffffff16141515610fcc57600080fd5b600760009054906101000a900473ffffffffffffffffffffffffffffffffffffffff1673ffffffffffffffffffffffffffffffffffffffff166328a4cc30836040518263ffffffff167c0100000000000000000000000000000000000000000000000000000000028152600401808273ffffffffffffffffffffffffffffffffffffffff1673ffffffffffffffffffffffffffffffffffffffff168152602001915050600060405180830381600087803b15801561108957600080fd5b505af115801561109d573d6000803e3d6000fd5b50505050600760009054906101000a900473ffffffffffffffffffffffffffffffffffffffff1673ffffffffffffffffffffffffffffffffffffffff166313e32bdb836040518263ffffffff167c0100000000000000000000000000000000000000000000000000000000028152600401808273ffffffffffffffffffffffffffffffffffffffff1673ffffffffffffffffffffffffffffffffffffffff168152602001915050600060405180830381600087803b15801561115e57600080fd5b505af1158015611172573d6000803e3d6000fd5b5050505060058290806001815401808255809150509060018203906000526020600020016000909192909190916101000a81548173ffffffffffffffffffffffffffffffffffffffff021916908373ffffffffffffffffffffffffffffffffffffffff1602179055509050600860009054906101000a900473ffffffffffffffffffffffffffffffffffffffff1673ffffffffffffffffffffffffffffffffffffffff1663b1efcbda836002546040518363ffffffff167c0100000000000000000000000000000000000000000000000000000000028152600401808373ffffffffffffffffffffffffffffffffffffffff1673ffffffffffffffffffffffffffffffffffffffff16815260200182815260200192505050600060405180830381600087803b1580156112a457600080fd5b505af11580156112b8573d6000803e3d6000fd5b505050507f24dcea8c6829d2830313a24c986ed795f78c1f1713f006f2578356baf2d1c43b30338484604051808573ffffffffffffffffffffffffffffffffffffffff1673ffffffffffffffffffffffffffffffffffffffff1681526020018473ffffffffffffffffffffffffffffffffffffffff1673ffffffffffffffffffffffffffffffffffffffff1681526020018373ffffffffffffffffffffffffffffffffffffffff1673ffffffffffffffffffffffffffffffffffffffff16815260200182815260200194505050505060405180910390a15050565b600160009054906101000a900473ffffffffffffffffffffffffffffffffffffffff1673ffffffffffffffffffffffffffffffffffffffff163373ffffffffffffffffffffffffffffffffffffffff161415156113ef57600080fd5b600073ffffffffffffffffffffffffffffffffffffffff168173ffffffffffffffffffffffffffffffffffffffff161415151561142b57600080fd5b8073ffffffffffffffffffffffffffffffffffffffff166000809054906101000a900473ffffffffffffffffffffffffffffffffffffffff1673ffffffffffffffffffffffffffffffffffffffff167f8be0079c531659141344cd1fd0a4f28419497f9722a3daafe3b4186f6b6457e060405160405180910390a3806000806101000a81548173ffffffffffffffffffffffffffffffffffffffff021916908373ffffffffffffffffffffffffffffffffffffffff16021790555050565b600080600090505b600580549050811015611581578273ffffffffffffffffffffffffffffffffffffffff1660058281548110151561152457fe5b9060005260206000200160009054906101000a900473ffffffffffffffffffffffffffffffffffffffff1673ffffffffffffffffffffffffffffffffffffffff1614156115745760019150611586565b80806001019150506114f1565b600091505b50919050565b600080600080604185511415156115a6576000935061167b565b6020850151925060408501519150606085015160001a9050601b8160ff1610156115d157601b810190505b601b8160ff16141580156115e95750601c8160ff1614155b156115f7576000935061167b565b600186828585604051600081526020016040526040518085600019166000191681526020018460ff1660ff1681526020018360001916600019168152602001826000191660001916815260200194505050505060206040516020810390808403906000865af115801561166e573d6000803e3d6000fd5b5050506020604051035193505b50505092915050565b828054600181600116156101000203166002900490600052602060002090601f016020900481019282601f106116c557805160ff19168380011785556116f3565b828001600101855582156116f3579182015b828111156116f25782518255916020019190600101906116d7565b5b5090506117009190611704565b5090565b61172691905b8082111561172257600081600090555060010161170a565b5090565b905600a165627a7a7230582012caaf571e050d110260c12e40b37ede298b5e1142f52141e08d299292fdb08b0029a165627a7a7230582061c946a8e7c1fc1d85b562a9eaab698f940b7a1f7fd6065f66cffe45d946ec830029",
  "source": "pragma solidity ^0.4.18;\r\n\r\nimport \"./Document.sol\";\r\n\r\nimport \"openzeppelin-solidity/contracts/ownership/Ownable.sol\";\r\n\r\nimport \"./IdentitiesIntf.sol\";\r\n\r\n\r\nimport \"./OwnableIntf.sol\";\r\n\r\n\r\n/**\r\n@title Documents\r\n@author Eldon Hipolito\r\n@dev Documents contract.\r\nRegistry for documents\r\n*/\r\ncontract Documents is Ownable {\r\n\r\n\r\n    mapping(uint256 => address) public documents;\r\n\r\n    mapping(address => uint256[]) public documentOwnership;\r\n\r\n    mapping(address => uint256[]) public signerDocuments;\r\n\r\n    uint256 public count;\r\n\r\n    IdentitiesIntf public identitiesAdd;\r\n\r\n    event DocumentCreated(uint256 id, address document, address creator);\r\n\r\n    event DocumentOwnershipTransferred(uint256 documentId, address previousOwner, address newOwner);\r\n\r\n    function ownedDocCount() external view returns(uint){\r\n        return documentOwnership[msg.sender].length;\r\n    }\r\n\r\n    function ownedDocument(uint256 ndx) external view returns(address){\r\n        uint256[] memory owned = documentOwnership[msg.sender];\r\n        return documents[owned[ndx]];\r\n    }\r\n\r\n    /**\r\n    @dev ctor\r\n    */\r\n    function Documents(address _identitiesAdd) public {\r\n        identitiesAdd = IdentitiesIntf(_identitiesAdd);\r\n    }\r\n\r\n    /**\r\n    @dev Creates document\r\n    The creation of documents is delegated to this function since it is needed to store it on the\r\n    registry after doc creation.\r\n    @param _docName - Doc label\r\n    @param _checksum - SHA256 checksum of the doc\r\n    */\r\n    function createDocument(string _docName, bytes32 _checksum) external {\r\n        identitiesAdd.checkCreatorRole(msg.sender);\r\n        count++;\r\n        address doc = new Document(count, _docName, _checksum, msg.sender, address(identitiesAdd), address(this));\r\n        documents[count] = doc;\r\n        documentOwnership[msg.sender].push(count);\r\n\r\n        emit DocumentCreated(count, doc, msg.sender);\r\n    }\r\n\r\n    /**\r\n    @dev Transfer doc ownership\r\n    @param documentId - Generated document ID \r\n    @param newOwner - address of the newOwner(must have the corresponding role), \r\n    */\r\n    function transferDocumentOwnership(uint256 documentId, address newOwner) external {\r\n        require(documents[documentId] != address(0));\r\n        int ownedNdx = ownedDocIndex(documentId, msg.sender);\r\n        require(ownedNdx != -1);\r\n        // Ensures that address of new owner has the rights to own the document\r\n        identitiesAdd.checkCreatorRole(newOwner);\r\n\r\n        removeDocOwnership(uint(ownedNdx));\r\n        OwnableIntf(documents[documentId]).transferOwnership(newOwner);\r\n\r\n        emit DocumentOwnershipTransferred(documentId, msg.sender, newOwner);\r\n\r\n    }\r\n\r\n    function ownedDocIndex(uint256 docId, address addr) internal view returns (int) {\r\n        uint256[] memory owned = documentOwnership[addr];\r\n\r\n        for(uint i = 0; i < owned.length; i++) {\r\n            if(owned[i] == docId) {\r\n                return int(i);\r\n            }\r\n        }\r\n\r\n        return -1;\r\n    }\r\n\r\n    function removeDocOwnership(uint ownedNdx) internal {\r\n        uint256[] storage docs = documentOwnership[msg.sender];\r\n\r\n\r\n        //Delete element\r\n        delete docs[ownedNdx];\r\n\r\n        //Move last element to deleted spot\r\n        docs[ownedNdx] = docs[docs.length - 1];\r\n\r\n        //Reduce array size\r\n        docs.length--;\r\n\r\n    }\r\n    /**\r\n    @dev To ensure flexibility of contract change, a setter has been provided such that\r\n    it will be possible to change the identities dependency of this contract.\r\n    @param _identitiesAdd - the new address of identities  \r\n     */\r\n    function setIdentitiesAdd(address _identitiesAdd) public onlyOwner {\r\n        identitiesAdd = IdentitiesIntf(_identitiesAdd);\r\n    }\r\n\r\n    /**\r\n        @dev Register signer - doc relationship for easy access\r\n        @param signerAddress - wallet address of the signer\r\n        @param docId - document id \r\n     */\r\n    function registerSignerToDoc(address signerAddress, uint256 docId) external {\r\n        require(documents[docId] != address(0));\r\n        uint256[] storage docNdcs = signerDocuments[signerAddress];\r\n        uint256 count = docNdcs.length++;\r\n        docNdcs[count] = docId;\r\n    }\r\n\r\n\r\n    function signerDocId(uint256 ndx) public view returns(uint) {\r\n        uint256[] storage docNdcs = signerDocuments[msg.sender];\r\n        require(docNdcs.length != 0);\r\n\r\n        return docNdcs[ndx];\r\n\r\n    }\r\n\r\n    /**\r\n        @dev Remove signer - doc relationship\r\n        @param signerAddress - wallet address of the signer\r\n        @param ndx - ndx of document \r\n     */\r\n    function removeSignerToDoc(address signerAddress, uint256 ndx) external {\r\n        uint256[] storage docNdcs = signerDocuments[signerAddress];\r\n\r\n        require(docNdcs[ndx] < 0);\r\n\r\n        delete docNdcs[ndx];\r\n\r\n        //Move last element to deleted spot\r\n        docNdcs[ndx] = docNdcs[docNdcs.length - 1];\r\n\r\n        //Reduce array size\r\n        docNdcs.length--;\r\n\r\n    }\r\n\r\n    function signerDocumentCount() public view returns(uint) {\r\n        return signerDocuments[msg.sender].length;\r\n    }\r\n\r\n\r\n}\r\n",
  "sourcePath": "C:\\Users\\User.Admin\\Desktop\\sol-workspace\\react-dmsmc\\contracts\\Documents.sol",
  "compiler": {
    "name": "solc",
    "version": "0.4.23+commit.124ca40d.Emscripten.clang"
  },
  "schemaVersion": "2.0.0",
  "updatedAt": "2018-07-11T06:57:53.803Z"
}