{
  "contractName": "Identities",
  "abi": [
    {
      "constant": true,
      "inputs": [
        {
          "name": "addr",
          "type": "address"
        },
        {
          "name": "roleName",
          "type": "string"
        }
      ],
      "name": "checkRole",
      "outputs": [],
      "payable": false,
      "stateMutability": "view",
      "type": "function"
    },
    {
      "constant": true,
      "inputs": [
        {
          "name": "",
          "type": "uint256"
        }
      ],
      "name": "registeredIdentities",
      "outputs": [
        {
          "name": "",
          "type": "address"
        }
      ],
      "payable": false,
      "stateMutability": "view",
      "type": "function"
    },
    {
      "constant": true,
      "inputs": [
        {
          "name": "addr",
          "type": "address"
        },
        {
          "name": "roleName",
          "type": "string"
        }
      ],
      "name": "hasRole",
      "outputs": [
        {
          "name": "",
          "type": "bool"
        }
      ],
      "payable": false,
      "stateMutability": "view",
      "type": "function"
    },
    {
      "constant": true,
      "inputs": [
        {
          "name": "",
          "type": "uint256"
        }
      ],
      "name": "requests",
      "outputs": [
        {
          "name": "user",
          "type": "address"
        },
        {
          "name": "identity",
          "type": "address"
        },
        {
          "name": "blockTimestamp",
          "type": "uint256"
        }
      ],
      "payable": false,
      "stateMutability": "view",
      "type": "function"
    },
    {
      "constant": false,
      "inputs": [
        {
          "name": "addr",
          "type": "address"
        },
        {
          "name": "roleName",
          "type": "string"
        }
      ],
      "name": "adminRemoveRole",
      "outputs": [],
      "payable": false,
      "stateMutability": "nonpayable",
      "type": "function"
    },
    {
      "constant": true,
      "inputs": [],
      "name": "owner",
      "outputs": [
        {
          "name": "",
          "type": "address"
        }
      ],
      "payable": false,
      "stateMutability": "view",
      "type": "function"
    },
    {
      "constant": false,
      "inputs": [
        {
          "name": "addr",
          "type": "address"
        },
        {
          "name": "roleName",
          "type": "string"
        }
      ],
      "name": "adminAddRole",
      "outputs": [],
      "payable": false,
      "stateMutability": "nonpayable",
      "type": "function"
    },
    {
      "constant": true,
      "inputs": [
        {
          "name": "",
          "type": "address"
        }
      ],
      "name": "unverifiedIdentities",
      "outputs": [
        {
          "name": "",
          "type": "address"
        }
      ],
      "payable": false,
      "stateMutability": "view",
      "type": "function"
    },
    {
      "constant": true,
      "inputs": [],
      "name": "ROLE_ADMIN",
      "outputs": [
        {
          "name": "",
          "type": "string"
        }
      ],
      "payable": false,
      "stateMutability": "view",
      "type": "function"
    },
    {
      "constant": false,
      "inputs": [
        {
          "name": "newOwner",
          "type": "address"
        }
      ],
      "name": "transferOwnership",
      "outputs": [],
      "payable": false,
      "stateMutability": "nonpayable",
      "type": "function"
    },
    {
      "constant": true,
      "inputs": [
        {
          "name": "",
          "type": "address"
        }
      ],
      "name": "identities",
      "outputs": [
        {
          "name": "",
          "type": "address"
        }
      ],
      "payable": false,
      "stateMutability": "view",
      "type": "function"
    },
    {
      "inputs": [],
      "payable": false,
      "stateMutability": "nonpayable",
      "type": "constructor"
    },
    {
      "anonymous": false,
      "inputs": [
        {
          "indexed": false,
          "name": "verifier",
          "type": "address"
        },
        {
          "indexed": false,
          "name": "user",
          "type": "address"
        },
        {
          "indexed": false,
          "name": "identity",
          "type": "address"
        }
      ],
      "name": "IdentityVerified",
      "type": "event"
    },
    {
      "anonymous": false,
      "inputs": [
        {
          "indexed": false,
          "name": "sender",
          "type": "address"
        },
        {
          "indexed": false,
          "name": "identity",
          "type": "address"
        }
      ],
      "name": "IdentityVerificationRequested",
      "type": "event"
    },
    {
      "anonymous": false,
      "inputs": [
        {
          "indexed": false,
          "name": "admin",
          "type": "address"
        },
        {
          "indexed": false,
          "name": "user",
          "type": "address"
        },
        {
          "indexed": false,
          "name": "role",
          "type": "string"
        }
      ],
      "name": "RoleAdded",
      "type": "event"
    },
    {
      "anonymous": false,
      "inputs": [
        {
          "indexed": false,
          "name": "admin",
          "type": "address"
        },
        {
          "indexed": false,
          "name": "user",
          "type": "address"
        },
        {
          "indexed": false,
          "name": "role",
          "type": "string"
        }
      ],
      "name": "RoleRemoved",
      "type": "event"
    },
    {
      "anonymous": false,
      "inputs": [
        {
          "indexed": false,
          "name": "addr",
          "type": "address"
        },
        {
          "indexed": false,
          "name": "roleName",
          "type": "string"
        }
      ],
      "name": "RoleAdded",
      "type": "event"
    },
    {
      "anonymous": false,
      "inputs": [
        {
          "indexed": false,
          "name": "addr",
          "type": "address"
        },
        {
          "indexed": false,
          "name": "roleName",
          "type": "string"
        }
      ],
      "name": "RoleRemoved",
      "type": "event"
    },
    {
      "anonymous": false,
      "inputs": [
        {
          "indexed": true,
          "name": "previousOwner",
          "type": "address"
        },
        {
          "indexed": true,
          "name": "newOwner",
          "type": "address"
        }
      ],
      "name": "OwnershipTransferred",
      "type": "event"
    },
    {
      "constant": false,
      "inputs": [
        {
          "name": "user",
          "type": "address"
        },
        {
          "name": "identity",
          "type": "address"
        }
      ],
      "name": "verifyIdentity",
      "outputs": [],
      "payable": false,
      "stateMutability": "nonpayable",
      "type": "function"
    },
    {
      "constant": false,
      "inputs": [
        {
          "name": "identity",
          "type": "address"
        }
      ],
      "name": "reqIdnVerification",
      "outputs": [],
      "payable": false,
      "stateMutability": "nonpayable",
      "type": "function"
    },
    {
      "constant": true,
      "inputs": [
        {
          "name": "ndx",
          "type": "uint256"
        }
      ],
      "name": "singleVerRequest",
      "outputs": [
        {
          "name": "",
          "type": "address"
        },
        {
          "name": "",
          "type": "address"
        },
        {
          "name": "",
          "type": "uint256"
        }
      ],
      "payable": false,
      "stateMutability": "view",
      "type": "function"
    },
    {
      "constant": true,
      "inputs": [],
      "name": "requestsCount",
      "outputs": [
        {
          "name": "",
          "type": "uint256"
        }
      ],
      "payable": false,
      "stateMutability": "view",
      "type": "function"
    },
    {
      "constant": true,
      "inputs": [],
      "name": "registeredIdentitiesCount",
      "outputs": [
        {
          "name": "",
          "type": "uint256"
        }
      ],
      "payable": false,
      "stateMutability": "view",
      "type": "function"
    },
    {
      "constant": true,
      "inputs": [
        {
          "name": "addr",
          "type": "address"
        }
      ],
      "name": "checkVerifiedRole",
      "outputs": [],
      "payable": false,
      "stateMutability": "view",
      "type": "function"
    },
    {
      "constant": true,
      "inputs": [
        {
          "name": "addr",
          "type": "address"
        }
      ],
      "name": "checkSignerRole",
      "outputs": [],
      "payable": false,
      "stateMutability": "view",
      "type": "function"
    },
    {
      "constant": true,
      "inputs": [
        {
          "name": "addr",
          "type": "address"
        }
      ],
      "name": "checkCreatorRole",
      "outputs": [],
      "payable": false,
      "stateMutability": "view",
      "type": "function"
    }
  ],
  "bytecode": "0x60806040523480156200001157600080fd5b50336000806101000a81548173ffffffffffffffffffffffffffffffffffffffff021916908373ffffffffffffffffffffffffffffffffffffffff160217905550620000a2336040805190810160405280600581526020017f61646d696e000000000000000000000000000000000000000000000000000000815250620000a8640100000000026401000000009004565b6200026c565b62000137826001836040518082805190602001908083835b602083101515620000e75780518252602082019150602081019050602083039250620000c0565b6001836020036101000a03801982511681845116808217855250505050505090500191505090815260200160405180910390206200020e6401000000000262001d6b179091906401000000009004565b7fbfec83d64eaa953f2708271a023ab9ee82057f8f3578d548c1a4ba0b5b7004898282604051808373ffffffffffffffffffffffffffffffffffffffff1673ffffffffffffffffffffffffffffffffffffffff16815260200180602001828103825283818151815260200191508051906020019080838360005b83811015620001ce578082015181840152602081019050620001b1565b50505050905090810190601f168015620001fc5780820380516001836020036101000a031916815260200191505b50935050505060405180910390a15050565b60018260000160008373ffffffffffffffffffffffffffffffffffffffff1673ffffffffffffffffffffffffffffffffffffffff16815260200190815260200160002060006101000a81548160ff0219169083151502179055505050565b611e9c806200027c6000396000f300608060405260043610610107576000357c0100000000000000000000000000000000000000000000000000000000900463ffffffff1680630988ca8c1461010c5780630c5ac8401461019557806311eeaf08146101d857806313e32bdb14610245578063217fe6c61461028857806328a4cc3014610329578063528929a31461036c578063749514e0146103cf57806381d12c58146103fa57806388cee87e146104a15780638da5cb5b1461052a578063b25fa92c14610581578063c1d274b41461060a578063d391014b1461068d578063d8a0b2e01461071d578063de0078c314610760578063f2fde38b14610807578063f653b81e1461084a578063fbfa4b7f146108cd575b600080fd5b34801561011857600080fd5b50610193600480360381019080803573ffffffffffffffffffffffffffffffffffffffff169060200190929190803590602001908201803590602001908080601f01602080910402602001604051908101604052809392919081815260200183838082843782019150505050505091929192905050506108f8565b005b3480156101a157600080fd5b506101d6600480360381019080803573ffffffffffffffffffffffffffffffffffffffff169060200190929190505050610979565b005b3480156101e457600080fd5b5061020360048036038101908080359060200190929190505050610e01565b604051808273ffffffffffffffffffffffffffffffffffffffff1673ffffffffffffffffffffffffffffffffffffffff16815260200191505060405180910390f35b34801561025157600080fd5b50610286600480360381019080803573ffffffffffffffffffffffffffffffffffffffff169060200190929190505050610e3f565b005b34801561029457600080fd5b5061030f600480360381019080803573ffffffffffffffffffffffffffffffffffffffff169060200190929190803590602001908201803590602001908080601f0160208091040260200160405190810160405280939291908181526020018383808284378201915050505050509192919290505050610e81565b604051808215151515815260200191505060405180910390f35b34801561033557600080fd5b5061036a600480360381019080803573ffffffffffffffffffffffffffffffffffffffff169060200190929190505050610f08565b005b34801561037857600080fd5b506103cd600480360381019080803573ffffffffffffffffffffffffffffffffffffffff169060200190929190803573ffffffffffffffffffffffffffffffffffffffff169060200190929190505050610f4a565b005b3480156103db57600080fd5b506103e4611375565b6040518082815260200191505060405180910390f35b34801561040657600080fd5b5061042560048036038101908080359060200190929190505050611382565b604051808473ffffffffffffffffffffffffffffffffffffffff1673ffffffffffffffffffffffffffffffffffffffff1681526020018373ffffffffffffffffffffffffffffffffffffffff1673ffffffffffffffffffffffffffffffffffffffff168152602001828152602001935050505060405180910390f35b3480156104ad57600080fd5b50610528600480360381019080803573ffffffffffffffffffffffffffffffffffffffff169060200190929190803590602001908201803590602001908080601f01602080910402602001604051908101604052809392919081815260200183838082843782019150505050505091929192905050506113fb565b005b34801561053657600080fd5b5061053f611448565b604051808273ffffffffffffffffffffffffffffffffffffffff1673ffffffffffffffffffffffffffffffffffffffff16815260200191505060405180910390f35b34801561058d57600080fd5b50610608600480360381019080803573ffffffffffffffffffffffffffffffffffffffff169060200190929190803590602001908201803590602001908080601f016020809104026020016040519081016040528093929190818152602001838380828437820191505050505050919291929050505061146d565b005b34801561061657600080fd5b5061064b600480360381019080803573ffffffffffffffffffffffffffffffffffffffff1690602001909291905050506114ba565b604051808273ffffffffffffffffffffffffffffffffffffffff1673ffffffffffffffffffffffffffffffffffffffff16815260200191505060405180910390f35b34801561069957600080fd5b506106a26114ed565b6040518080602001828103825283818151815260200191508051906020019080838360005b838110156106e25780820151818401526020810190506106c7565b50505050905090810190601f16801561070f5780820380516001836020036101000a031916815260200191505b509250505060405180910390f35b34801561072957600080fd5b5061075e600480360381019080803573ffffffffffffffffffffffffffffffffffffffff169060200190929190505050611526565b005b34801561076c57600080fd5b5061078b60048036038101908080359060200190929190505050611568565b604051808473ffffffffffffffffffffffffffffffffffffffff1673ffffffffffffffffffffffffffffffffffffffff1681526020018373ffffffffffffffffffffffffffffffffffffffff1673ffffffffffffffffffffffffffffffffffffffff168152602001828152602001935050505060405180910390f35b34801561081357600080fd5b50610848600480360381019080803573ffffffffffffffffffffffffffffffffffffffff16906020019092919050505061161d565b005b34801561085657600080fd5b5061088b600480360381019080803573ffffffffffffffffffffffffffffffffffffffff169060200190929190505050611772565b604051808273ffffffffffffffffffffffffffffffffffffffff1673ffffffffffffffffffffffffffffffffffffffff16815260200191505060405180910390f35b3480156108d957600080fd5b506108e26117a5565b6040518082815260200191505060405180910390f35b610975826001836040518082805190602001908083835b602083101515610934578051825260208201915060208101905060208303925061090f565b6001836020036101000a03801982511681845116808217855250505050505090500191505090815260200160405180910390206117b290919063ffffffff16565b5050565b600073ffffffffffffffffffffffffffffffffffffffff16600260003373ffffffffffffffffffffffffffffffffffffffff1673ffffffffffffffffffffffffffffffffffffffff16815260200190815260200160002060009054906101000a900473ffffffffffffffffffffffffffffffffffffffff1673ffffffffffffffffffffffffffffffffffffffff16141515610a1357600080fd5b600073ffffffffffffffffffffffffffffffffffffffff16600460003373ffffffffffffffffffffffffffffffffffffffff1673ffffffffffffffffffffffffffffffffffffffff16815260200190815260200160002060009054906101000a900473ffffffffffffffffffffffffffffffffffffffff1673ffffffffffffffffffffffffffffffffffffffff16141515610aad57600080fd5b3373ffffffffffffffffffffffffffffffffffffffff168173ffffffffffffffffffffffffffffffffffffffff16638da5cb5b6040518163ffffffff167c0100000000000000000000000000000000000000000000000000000000028152600401602060405180830381600087803b158015610b2857600080fd5b505af1158015610b3c573d6000803e3d6000fd5b505050506040513d6020811015610b5257600080fd5b810190808051906020019092919050505073ffffffffffffffffffffffffffffffffffffffff16141515610b8557600080fd5b610bc4336040805190810160405280600581526020017f61646d696e000000000000000000000000000000000000000000000000000000815250610e81565b15610bd857610bd33382610f4a565b610dfe565b60056060604051908101604052803373ffffffffffffffffffffffffffffffffffffffff1681526020018373ffffffffffffffffffffffffffffffffffffffff168152602001428152509080600181540180825580915050906001820390600052602060002090600302016000909192909190915060008201518160000160006101000a81548173ffffffffffffffffffffffffffffffffffffffff021916908373ffffffffffffffffffffffffffffffffffffffff16021790555060208201518160010160006101000a81548173ffffffffffffffffffffffffffffffffffffffff021916908373ffffffffffffffffffffffffffffffffffffffff1602179055506040820151816002015550505080600460003373ffffffffffffffffffffffffffffffffffffffff1673ffffffffffffffffffffffffffffffffffffffff16815260200190815260200160002060006101000a81548173ffffffffffffffffffffffffffffffffffffffff021916908373ffffffffffffffffffffffffffffffffffffffff1602179055507fa0a854e1efc619269c569f1f07b405520fdf17081229acf3a14a79b5a7b8ea523382604051808373ffffffffffffffffffffffffffffffffffffffff1673ffffffffffffffffffffffffffffffffffffffff1681526020018273ffffffffffffffffffffffffffffffffffffffff1673ffffffffffffffffffffffffffffffffffffffff1681526020019250505060405180910390a15b50565b600381815481101515610e1057fe5b906000526020600020016000915054906101000a900473ffffffffffffffffffffffffffffffffffffffff1681565b610e7e816040805190810160405280600681526020017f7369676e657200000000000000000000000000000000000000000000000000008152506108f8565b50565b6000610f00836001846040518082805190602001908083835b602083101515610ebf5780518252602082019150602081019050602083039250610e9a565b6001836020036101000a03801982511681845116808217855250505050505090500191505090815260200160405180910390206117cb90919063ffffffff16565b905092915050565b610f47816040805190810160405280600881526020017f76657269666965640000000000000000000000000000000000000000000000008152506108f8565b50565b610f89336040805190810160405280600581526020017f61646d696e0000000000000000000000000000000000000000000000000000008152506108f8565b8173ffffffffffffffffffffffffffffffffffffffff168173ffffffffffffffffffffffffffffffffffffffff16638da5cb5b6040518163ffffffff167c0100000000000000000000000000000000000000000000000000000000028152600401602060405180830381600087803b15801561100457600080fd5b505af1158015611018573d6000803e3d6000fd5b505050506040513d602081101561102e57600080fd5b810190808051906020019092919050505073ffffffffffffffffffffffffffffffffffffffff1614151561106157600080fd5b600073ffffffffffffffffffffffffffffffffffffffff16600260008473ffffffffffffffffffffffffffffffffffffffff1673ffffffffffffffffffffffffffffffffffffffff16815260200190815260200160002060009054906101000a900473ffffffffffffffffffffffffffffffffffffffff1673ffffffffffffffffffffffffffffffffffffffff161415156110fb57600080fd5b80600260008473ffffffffffffffffffffffffffffffffffffffff1673ffffffffffffffffffffffffffffffffffffffff16815260200190815260200160002060006101000a81548173ffffffffffffffffffffffffffffffffffffffff021916908373ffffffffffffffffffffffffffffffffffffffff1602179055506000600460008473ffffffffffffffffffffffffffffffffffffffff1673ffffffffffffffffffffffffffffffffffffffff16815260200190815260200160002060006101000a81548173ffffffffffffffffffffffffffffffffffffffff021916908373ffffffffffffffffffffffffffffffffffffffff16021790555060038290806001815401808255809150509060018203906000526020600020016000909192909190916101000a81548173ffffffffffffffffffffffffffffffffffffffff021916908373ffffffffffffffffffffffffffffffffffffffff1602179055505061126782611824565b6112a6826040805190810160405280600881526020017f766572696669656400000000000000000000000000000000000000000000000081525061146d565b7f64dbe0d4fd6f143cba53f80d61ad204ecf1c5d1b77e229965dbea0e5bb53188d338383604051808473ffffffffffffffffffffffffffffffffffffffff1673ffffffffffffffffffffffffffffffffffffffff1681526020018373ffffffffffffffffffffffffffffffffffffffff1673ffffffffffffffffffffffffffffffffffffffff1681526020018273ffffffffffffffffffffffffffffffffffffffff1673ffffffffffffffffffffffffffffffffffffffff168152602001935050505060405180910390a15050565b6000600380549050905090565b60058181548110151561139157fe5b90600052602060002090600302016000915090508060000160009054906101000a900473ffffffffffffffffffffffffffffffffffffffff16908060010160009054906101000a900473ffffffffffffffffffffffffffffffffffffffff16908060020154905083565b61143a336040805190810160405280600581526020017f61646d696e0000000000000000000000000000000000000000000000000000008152506108f8565b6114448282611a6b565b5050565b6000809054906101000a900473ffffffffffffffffffffffffffffffffffffffff1681565b6114ac336040805190810160405280600581526020017f61646d696e0000000000000000000000000000000000000000000000000000008152506108f8565b6114b68282611bbc565b5050565b60046020528060005260406000206000915054906101000a900473ffffffffffffffffffffffffffffffffffffffff1681565b6040805190810160405280600581526020017f61646d696e00000000000000000000000000000000000000000000000000000081525081565b611565816040805190810160405280600781526020017f63726561746f72000000000000000000000000000000000000000000000000008152506108f8565b50565b600080600060058481548110151561157c57fe5b906000526020600020906003020160000160009054906101000a900473ffffffffffffffffffffffffffffffffffffffff166005858154811015156115bd57fe5b906000526020600020906003020160010160009054906101000a900473ffffffffffffffffffffffffffffffffffffffff166005868154811015156115fe57fe5b9060005260206000209060030201600201549250925092509193909250565b6000809054906101000a900473ffffffffffffffffffffffffffffffffffffffff1673ffffffffffffffffffffffffffffffffffffffff163373ffffffffffffffffffffffffffffffffffffffff1614151561167857600080fd5b600073ffffffffffffffffffffffffffffffffffffffff168173ffffffffffffffffffffffffffffffffffffffff16141515156116b457600080fd5b8073ffffffffffffffffffffffffffffffffffffffff166000809054906101000a900473ffffffffffffffffffffffffffffffffffffffff1673ffffffffffffffffffffffffffffffffffffffff167f8be0079c531659141344cd1fd0a4f28419497f9722a3daafe3b4186f6b6457e060405160405180910390a3806000806101000a81548173ffffffffffffffffffffffffffffffffffffffff021916908373ffffffffffffffffffffffffffffffffffffffff16021790555050565b60026020528060005260406000206000915054906101000a900473ffffffffffffffffffffffffffffffffffffffff1681565b6000600580549050905090565b6117bc82826117cb565b15156117c757600080fd5b5050565b60008260000160008373ffffffffffffffffffffffffffffffffffffffff1673ffffffffffffffffffffffffffffffffffffffff16815260200190815260200160002060009054906101000a900460ff16905092915050565b60008090505b600580549050811015611a66578173ffffffffffffffffffffffffffffffffffffffff1660058281548110151561185d57fe5b906000526020600020906003020160000160009054906101000a900473ffffffffffffffffffffffffffffffffffffffff1673ffffffffffffffffffffffffffffffffffffffff161415611a59576005818154811015156118ba57fe5b9060005260206000209060030201600080820160006101000a81549073ffffffffffffffffffffffffffffffffffffffff02191690556001820160006101000a81549073ffffffffffffffffffffffffffffffffffffffff021916905560028201600090555050600560016005805490500381548110151561193857fe5b906000526020600020906003020160058281548110151561195557fe5b90600052602060002090600302016000820160009054906101000a900473ffffffffffffffffffffffffffffffffffffffff168160000160006101000a81548173ffffffffffffffffffffffffffffffffffffffff021916908373ffffffffffffffffffffffffffffffffffffffff1602179055506001820160009054906101000a900473ffffffffffffffffffffffffffffffffffffffff168160010160006101000a81548173ffffffffffffffffffffffffffffffffffffffff021916908373ffffffffffffffffffffffffffffffffffffffff160217905550600282015481600201559050506005805480919060019003611a539190611dc9565b50611a67565b808060010191505061182a565b5b5050565b611ae8826001836040518082805190602001908083835b602083101515611aa75780518252602082019150602081019050602083039250611a82565b6001836020036101000a0380198251168184511680821785525050505050509050019150509081526020016040518091039020611d0d90919063ffffffff16565b7fd211483f91fc6eff862467f8de606587a30c8fc9981056f051b897a418df803a8282604051808373ffffffffffffffffffffffffffffffffffffffff1673ffffffffffffffffffffffffffffffffffffffff16815260200180602001828103825283818151815260200191508051906020019080838360005b83811015611b7d578082015181840152602081019050611b62565b50505050905090810190601f168015611baa5780820380516001836020036101000a031916815260200191505b50935050505060405180910390a15050565b611c39826001836040518082805190602001908083835b602083101515611bf85780518252602082019150602081019050602083039250611bd3565b6001836020036101000a0380198251168184511680821785525050505050509050019150509081526020016040518091039020611d6b90919063ffffffff16565b7fbfec83d64eaa953f2708271a023ab9ee82057f8f3578d548c1a4ba0b5b7004898282604051808373ffffffffffffffffffffffffffffffffffffffff1673ffffffffffffffffffffffffffffffffffffffff16815260200180602001828103825283818151815260200191508051906020019080838360005b83811015611cce578082015181840152602081019050611cb3565b50505050905090810190601f168015611cfb5780820380516001836020036101000a031916815260200191505b50935050505060405180910390a15050565b60008260000160008373ffffffffffffffffffffffffffffffffffffffff1673ffffffffffffffffffffffffffffffffffffffff16815260200190815260200160002060006101000a81548160ff0219169083151502179055505050565b60018260000160008373ffffffffffffffffffffffffffffffffffffffff1673ffffffffffffffffffffffffffffffffffffffff16815260200190815260200160002060006101000a81548160ff0219169083151502179055505050565b815481835581811115611df657600302816003028360005260206000209182019101611df59190611dfb565b5b505050565b611e6d91905b80821115611e6957600080820160006101000a81549073ffffffffffffffffffffffffffffffffffffffff02191690556001820160006101000a81549073ffffffffffffffffffffffffffffffffffffffff0219169055600282016000905550600301611e01565b5090565b905600a165627a7a723058201d9fb804bded153aa358479452edd5a9796daaa588f9a0637098ab75cfc88e6c0029",
  "source": "pragma solidity ^0.4.18;\r\n\r\nimport \"openzeppelin-solidity/contracts/ownership/Ownable.sol\";\r\n\r\nimport \"openzeppelin-solidity/contracts/ownership/rbac/RBACWithAdmin.sol\";\r\n\r\n/**\r\n@title Identities\r\n@author Eldon Hipolito\r\n@dev This contract is used as a registry for identities, and acts as the role based access control.\r\n*/\r\ncontract Identities is Ownable, RBACWithAdmin {\r\n\r\n\r\n    struct VerificationData {\r\n        address user;\r\n        address identity;\r\n        uint256 blockTimestamp;\r\n    }\r\n\r\n    // Mapping of user address to identity\r\n    mapping(address => address) public identities;\r\n    //For iterating registered identities\r\n    address[] public registeredIdentities;\r\n\r\n    // Mapping of user address to identity\r\n    mapping(address => address) public unverifiedIdentities;\r\n\r\n    // Requests for verification\r\n    VerificationData[] public requests;\r\n\r\n    string constant ROLE_VERIFIED_IDENTITY = \"verified\";\r\n\r\n    string constant ROLE_DOCUMENT_SIGNER = \"signer\";\r\n\r\n    string constant ROLE_DOCUMENT_CREATOR = \"creator\";\r\n\r\n    /**\r\n    @dev ctor\r\n    */\r\n    function Identities() public {\r\n\r\n    }\r\n\r\n    event IdentityVerified(address verifier, address user, address identity);\r\n\r\n    event IdentityVerificationRequested(address sender, address identity);\r\n\r\n    event RoleAdded(address admin, address user, string role);\r\n\r\n    event RoleRemoved(address admin, address user, string role);\r\n\r\n\r\n    /**\r\n        @dev Verifies an identity. Only accessible by an admin\r\n        @param user - address of the user\r\n        @param identity - identity of the user\r\n    */\r\n    function verifyIdentity(address user, address identity) public onlyAdmin {\r\n        require(Ownable(identity).owner() == user);\r\n        require(identities[user] == address(0));\r\n\r\n        identities[user] = identity;\r\n        unverifiedIdentities[user] = address(0);\r\n        registeredIdentities.push(user);\r\n        rmvUnverifiedIdn(user);\r\n        adminAddRole(user, ROLE_VERIFIED_IDENTITY);\r\n        emit IdentityVerified(msg.sender, user, identity);\r\n    }\r\n\r\n    /**\r\n        @dev Removes the unverified identity from the requests.\r\n        @param user - address of the user\r\n    */\r\n    function rmvUnverifiedIdn(address user) internal {\r\n        for(uint i = 0; i < requests.length; i++) {\r\n            if(requests[i].user == user) {\r\n                delete requests[i];\r\n                requests[i] = requests[requests.length - 1];\r\n                requests.length--;\r\n                return;\r\n            }\r\n        }\r\n    }\r\n\r\n    /**\r\n        @dev Requests identity verification.\r\n        @param identity - identity of the user\r\n    */\r\n    function reqIdnVerification(address identity) external {\r\n        require(identities[msg.sender] == address(0));\r\n        require(unverifiedIdentities[msg.sender] == address(0));\r\n        require(Ownable(identity).owner() == msg.sender);\r\n\r\n        if(hasRole(msg.sender, \"admin\")) {\r\n            verifyIdentity(msg.sender, identity);\r\n        } else {\r\n            requests.push(VerificationData(msg.sender, identity, block.timestamp));\r\n            unverifiedIdentities[msg.sender] = identity;\r\n            emit IdentityVerificationRequested(msg.sender, identity);\r\n        }\r\n        \r\n    }\r\n\r\n    function singleVerRequest(uint ndx) external view returns(address, address, uint256) {\r\n        return (requests[ndx].user, requests[ndx].identity, requests[ndx].blockTimestamp);\r\n    }\r\n\r\n    function requestsCount() external view returns(uint) {\r\n        return requests.length;\r\n    }\r\n\r\n    function registeredIdentitiesCount() external view returns(uint) {\r\n        return registeredIdentities.length;\r\n    }\r\n\r\n\r\n    /**\r\n    @dev Will check if addr has verified role. Throws when false\r\n    @param addr - address of the user\r\n    */\r\n    function checkVerifiedRole(address addr) view public {\r\n        checkRole(addr, ROLE_VERIFIED_IDENTITY);\r\n    }\r\n    /**\r\n    @dev Will check if addr has signer role. Throws when false\r\n    @param addr - address of the user\r\n    */\r\n    function checkSignerRole(address addr) view public {\r\n        checkRole(addr, ROLE_DOCUMENT_SIGNER);\r\n    }\r\n    /**\r\n    @dev Will check if addr has creator role. Throws when false\r\n    @param addr - address of the user\r\n    */\r\n    function checkCreatorRole(address addr) view public {\r\n        checkRole(addr, ROLE_DOCUMENT_CREATOR);\r\n    }\r\n\r\n\r\n}\r\n\r\n",
  "sourcePath": "C:\\Users\\User.Admin\\Desktop\\sol-workspace\\react-dmsmc\\contracts\\Identities.sol",
  "compiler": {
    "name": "solc",
    "version": "0.4.23+commit.124ca40d.Emscripten.clang"
  },
  "schemaVersion": "2.0.0",
  "updatedAt": "2018-11-15T05:32:17.001Z"
}