{
  "contractName": "Identity",
  "abi": [
    {
      "constant": true,
      "inputs": [],
      "name": "name",
      "outputs": [
        {
          "name": "",
          "type": "string"
        }
      ],
      "payable": false,
      "stateMutability": "view",
      "type": "function"
    },
    {
      "constant": true,
      "inputs": [],
      "name": "userId",
      "outputs": [
        {
          "name": "",
          "type": "string"
        }
      ],
      "payable": false,
      "stateMutability": "view",
      "type": "function"
    },
    {
      "constant": true,
      "inputs": [],
      "name": "owner",
      "outputs": [
        {
          "name": "",
          "type": "address"
        }
      ],
      "payable": false,
      "stateMutability": "view",
      "type": "function"
    },
    {
      "inputs": [
        {
          "name": "_userId",
          "type": "string"
        },
        {
          "name": "_name",
          "type": "string"
        }
      ],
      "payable": false,
      "stateMutability": "nonpayable",
      "type": "constructor"
    },
    {
      "constant": true,
      "inputs": [
        {
          "name": "message",
          "type": "string"
        },
        {
          "name": "sig",
          "type": "bytes"
        }
      ],
      "name": "authenticate",
      "outputs": [
        {
          "name": "",
          "type": "bool"
        }
      ],
      "payable": false,
      "stateMutability": "view",
      "type": "function"
    },
    {
      "constant": true,
      "inputs": [
        {
          "name": "message",
          "type": "string"
        },
        {
          "name": "sig",
          "type": "bytes"
        }
      ],
      "name": "isOwnSignature",
      "outputs": [
        {
          "name": "",
          "type": "bool"
        }
      ],
      "payable": false,
      "stateMutability": "view",
      "type": "function"
    }
  ],
  "bytecode": "0x608060405234801561001057600080fd5b50604051610958380380610958833981018060405281019080805182019291906020018051820192919050505081600090805190602001906100539291906100b3565b50806001908051906020019061006a9291906100b3565b5033600260006101000a81548173ffffffffffffffffffffffffffffffffffffffff021916908373ffffffffffffffffffffffffffffffffffffffff1602179055505050610158565b828054600181600116156101000203166002900490600052602060002090601f016020900481019282601f106100f457805160ff1916838001178555610122565b82800160010185558215610122579182015b82811115610121578251825591602001919060010190610106565b5b50905061012f9190610133565b5090565b61015591905b80821115610151576000816000905550600101610139565b5090565b90565b6107f1806101676000396000f30060806040526004361061006d576000357c0100000000000000000000000000000000000000000000000000000000900463ffffffff16806306fdde03146100725780635897591914610102578063807bffe9146101925780638da5cb5b146101fd578063e006997c14610254575b600080fd5b34801561007e57600080fd5b506100876102bf565b6040518080602001828103825283818151815260200191508051906020019080838360005b838110156100c75780820151818401526020810190506100ac565b50505050905090810190601f1680156100f45780820380516001836020036101000a031916815260200191505b509250505060405180910390f35b34801561010e57600080fd5b5061011761035d565b6040518080602001828103825283818151815260200191508051906020019080838360005b8381101561015757808201518184015260208101905061013c565b50505050905090810190601f1680156101845780820380516001836020036101000a031916815260200191505b509250505060405180910390f35b34801561019e57600080fd5b506101e36004803603810190808035906020019082018035906020019190919293919293908035906020019082018035906020019190919293919293905050506103fb565b604051808215151515815260200191505060405180910390f35b34801561020957600080fd5b506102126104cd565b604051808273ffffffffffffffffffffffffffffffffffffffff1673ffffffffffffffffffffffffffffffffffffffff16815260200191505060405180910390f35b34801561026057600080fd5b506102a56004803603810190808035906020019082018035906020019190919293919293908035906020019082018035906020019190919293919293905050506104f3565b604051808215151515815260200191505060405180910390f35b60018054600181600116156101000203166002900480601f0160208091040260200160405190810160405280929190818152602001828054600181600116156101000203166002900480156103555780601f1061032a57610100808354040283529160200191610355565b820191906000526020600020905b81548152906001019060200180831161033857829003601f168201915b505050505081565b60008054600181600116156101000203166002900480601f0160208091040260200160405190810160405280929190818152602001828054600181600116156101000203166002900480156103f35780601f106103c8576101008083540402835291602001916103f3565b820191906000526020600020905b8154815290600101906020018083116103d657829003601f168201915b505050505081565b6000600260009054906101000a900473ffffffffffffffffffffffffffffffffffffffff1673ffffffffffffffffffffffffffffffffffffffff166104ac61047487878080601f0160208091040260200160405190810160405280939291908181526020018383808284378201915050505050506105ff565b85858080601f0160208091040260200160405190810160405280939291908181526020018383808284378201915050505050506106cd565b73ffffffffffffffffffffffffffffffffffffffff16149050949350505050565b600260009054906101000a900473ffffffffffffffffffffffffffffffffffffffff1681565b6000600260009054906101000a900473ffffffffffffffffffffffffffffffffffffffff1673ffffffffffffffffffffffffffffffffffffffff163373ffffffffffffffffffffffffffffffffffffffff1614151561055157600080fd5b3373ffffffffffffffffffffffffffffffffffffffff166105de6105a687878080601f0160208091040260200160405190810160405280939291908181526020018383808284378201915050505050506105ff565b85858080601f0160208091040260200160405190810160405280939291908181526020018383808284378201915050505050506106cd565b73ffffffffffffffffffffffffffffffffffffffff16149050949350505050565b600060405180807f737472696e67206d657373616765000000000000000000000000000000000000815250600e0190506040518091039020826040518082805190602001908083835b60208310151561066d5780518252602082019150602081019050602083039250610648565b6001836020036101000a038019825116818451168082178552505050505050905001915050604051809103902060405180836000191660001916815260200182600019166000191681526020019250505060405180910390209050919050565b600080600080604185511415156106e757600093506107bc565b6020850151925060408501519150606085015160001a9050601b8160ff16101561071257601b810190505b601b8160ff161415801561072a5750601c8160ff1614155b1561073857600093506107bc565b600186828585604051600081526020016040526040518085600019166000191681526020018460ff1660ff1681526020018360001916600019168152602001826000191660001916815260200194505050505060206040516020810390808403906000865af11580156107af573d6000803e3d6000fd5b5050506020604051035193505b505050929150505600a165627a7a72305820e8bf4a2598d45f307d971748f5e12f2699e3ca8a34df9007e6727592e72adc590029",
  "source": "pragma solidity ^0.4.18;\r\n\r\nimport \"openzeppelin-solidity/contracts/ECRecovery.sol\";\r\nimport \"./SelfSignatureVerifiable.sol\";\r\n\r\n/**\r\n@title Identity\r\n@author Eldon Hipolito\r\n@dev Identity contract for all users.\r\nUsed to be able to identify them and to be able to interact with the system\r\n*/\r\ncontract Identity is SelfSignatureVerifiable {\r\n\r\n    string public userId;\r\n\r\n    string public name;\r\n\r\n    address public owner;\r\n\r\n    modifier onlyOwner() {\r\n        require(msg.sender == owner);\r\n        _;\r\n    }\r\n\r\n    /**\r\n    @dev ctor\r\n    */\r\n    function Identity(string _userId, string _name) public {\r\n        userId = _userId;\r\n        name = _name;\r\n        owner = msg.sender;\r\n    }\r\n\r\n    /**\r\n    @dev Acts as the sign-in function for the dapp.\r\n    The user/owner of this contract will have to sign a dummy text using his own private key.\r\n    The resulting signed text will be used by this function to recover the address of the user\r\n    to determine if he is indeed the one interacting with the dapp.\r\n    @param message - text to be signed\r\n    @param sig - The signed text using private key\r\n    @return bool - authenticated or not\r\n    */\r\n    function authenticate(string message, bytes sig) external view onlyOwner returns (bool) {\r\n        return ECRecovery.recover(hashDataForSig(message), sig) == msg.sender;\r\n    }\r\n\r\n    function hashDataForSig(string message) internal pure returns (bytes32) {\r\n        return keccak256(keccak256(\"string message\"),keccak256(message));\r\n    }\r\n\r\n    /**\r\n        @dev This checks whether the signed text is signed by the owner of this contract\r\n        @param message - The text hashed through keccak256 algorithm.\r\n        @param sig - The signed text using the private key of the owner of this contract.\r\n        @return bool\r\n    */\r\n    function isOwnSignature(string message, bytes sig) external view returns (bool) {\r\n        return ECRecovery.recover(hashDataForSig(message), sig) == owner;\r\n    }\r\n\r\n\r\n}\r\n\r\n",
  "sourcePath": "C:\\Users\\User.Admin\\Desktop\\sol-workspace\\react-dmsmc\\contracts\\Identity.sol",
  "compiler": {
    "name": "solc",
    "version": "0.4.23+commit.124ca40d.Emscripten.clang"
  },
  "schemaVersion": "2.0.0",
  "updatedAt": "2018-07-12T10:47:49.364Z"
}