{
  "contractName": "Identities",
  "abi": [
    {
      "constant": true,
      "inputs": [
        {
          "name": "addr",
          "type": "address"
        },
        {
          "name": "roleName",
          "type": "string"
        }
      ],
      "name": "checkRole",
      "outputs": [],
      "payable": false,
      "stateMutability": "view",
      "type": "function"
    },
    {
      "constant": true,
      "inputs": [
        {
          "name": "addr",
          "type": "address"
        },
        {
          "name": "roleName",
          "type": "string"
        }
      ],
      "name": "hasRole",
      "outputs": [
        {
          "name": "",
          "type": "bool"
        }
      ],
      "payable": false,
      "stateMutability": "view",
      "type": "function"
    },
    {
      "constant": true,
      "inputs": [
        {
          "name": "",
          "type": "uint256"
        }
      ],
      "name": "requests",
      "outputs": [
        {
          "name": "user",
          "type": "address"
        },
        {
          "name": "identity",
          "type": "address"
        },
        {
          "name": "blockTimestamp",
          "type": "uint256"
        }
      ],
      "payable": false,
      "stateMutability": "view",
      "type": "function"
    },
    {
      "constant": false,
      "inputs": [
        {
          "name": "addr",
          "type": "address"
        },
        {
          "name": "roleName",
          "type": "string"
        }
      ],
      "name": "adminRemoveRole",
      "outputs": [],
      "payable": false,
      "stateMutability": "nonpayable",
      "type": "function"
    },
    {
      "constant": true,
      "inputs": [],
      "name": "owner",
      "outputs": [
        {
          "name": "",
          "type": "address"
        }
      ],
      "payable": false,
      "stateMutability": "view",
      "type": "function"
    },
    {
      "constant": false,
      "inputs": [
        {
          "name": "addr",
          "type": "address"
        },
        {
          "name": "roleName",
          "type": "string"
        }
      ],
      "name": "adminAddRole",
      "outputs": [],
      "payable": false,
      "stateMutability": "nonpayable",
      "type": "function"
    },
    {
      "constant": true,
      "inputs": [
        {
          "name": "",
          "type": "address"
        }
      ],
      "name": "unverifiedIdentities",
      "outputs": [
        {
          "name": "",
          "type": "address"
        }
      ],
      "payable": false,
      "stateMutability": "view",
      "type": "function"
    },
    {
      "constant": true,
      "inputs": [],
      "name": "ROLE_ADMIN",
      "outputs": [
        {
          "name": "",
          "type": "string"
        }
      ],
      "payable": false,
      "stateMutability": "view",
      "type": "function"
    },
    {
      "constant": false,
      "inputs": [
        {
          "name": "newOwner",
          "type": "address"
        }
      ],
      "name": "transferOwnership",
      "outputs": [],
      "payable": false,
      "stateMutability": "nonpayable",
      "type": "function"
    },
    {
      "constant": true,
      "inputs": [
        {
          "name": "",
          "type": "address"
        }
      ],
      "name": "identities",
      "outputs": [
        {
          "name": "",
          "type": "address"
        }
      ],
      "payable": false,
      "stateMutability": "view",
      "type": "function"
    },
    {
      "inputs": [],
      "payable": false,
      "stateMutability": "nonpayable",
      "type": "constructor"
    },
    {
      "anonymous": false,
      "inputs": [
        {
          "indexed": false,
          "name": "verifier",
          "type": "address"
        },
        {
          "indexed": false,
          "name": "user",
          "type": "address"
        },
        {
          "indexed": false,
          "name": "identity",
          "type": "address"
        }
      ],
      "name": "IdentityVerified",
      "type": "event"
    },
    {
      "anonymous": false,
      "inputs": [
        {
          "indexed": false,
          "name": "sender",
          "type": "address"
        },
        {
          "indexed": false,
          "name": "identity",
          "type": "address"
        }
      ],
      "name": "IdentityVerificationRequested",
      "type": "event"
    },
    {
      "anonymous": false,
      "inputs": [
        {
          "indexed": false,
          "name": "admin",
          "type": "address"
        },
        {
          "indexed": false,
          "name": "user",
          "type": "address"
        },
        {
          "indexed": false,
          "name": "role",
          "type": "string"
        }
      ],
      "name": "RoleAdded",
      "type": "event"
    },
    {
      "anonymous": false,
      "inputs": [
        {
          "indexed": false,
          "name": "admin",
          "type": "address"
        },
        {
          "indexed": false,
          "name": "user",
          "type": "address"
        },
        {
          "indexed": false,
          "name": "role",
          "type": "string"
        }
      ],
      "name": "RoleRemoved",
      "type": "event"
    },
    {
      "anonymous": false,
      "inputs": [
        {
          "indexed": false,
          "name": "addr",
          "type": "address"
        },
        {
          "indexed": false,
          "name": "roleName",
          "type": "string"
        }
      ],
      "name": "RoleAdded",
      "type": "event"
    },
    {
      "anonymous": false,
      "inputs": [
        {
          "indexed": false,
          "name": "addr",
          "type": "address"
        },
        {
          "indexed": false,
          "name": "roleName",
          "type": "string"
        }
      ],
      "name": "RoleRemoved",
      "type": "event"
    },
    {
      "anonymous": false,
      "inputs": [
        {
          "indexed": true,
          "name": "previousOwner",
          "type": "address"
        },
        {
          "indexed": true,
          "name": "newOwner",
          "type": "address"
        }
      ],
      "name": "OwnershipTransferred",
      "type": "event"
    },
    {
      "constant": false,
      "inputs": [
        {
          "name": "user",
          "type": "address"
        },
        {
          "name": "identity",
          "type": "address"
        }
      ],
      "name": "verifyIdentity",
      "outputs": [],
      "payable": false,
      "stateMutability": "nonpayable",
      "type": "function"
    },
    {
      "constant": false,
      "inputs": [
        {
          "name": "identity",
          "type": "address"
        }
      ],
      "name": "reqIdnVerification",
      "outputs": [],
      "payable": false,
      "stateMutability": "nonpayable",
      "type": "function"
    },
    {
      "constant": true,
      "inputs": [
        {
          "name": "ndx",
          "type": "uint256"
        }
      ],
      "name": "singleVerRequest",
      "outputs": [
        {
          "name": "",
          "type": "address"
        },
        {
          "name": "",
          "type": "address"
        },
        {
          "name": "",
          "type": "uint256"
        }
      ],
      "payable": false,
      "stateMutability": "view",
      "type": "function"
    },
    {
      "constant": true,
      "inputs": [],
      "name": "requestsCount",
      "outputs": [
        {
          "name": "",
          "type": "uint256"
        }
      ],
      "payable": false,
      "stateMutability": "view",
      "type": "function"
    },
    {
      "constant": true,
      "inputs": [
        {
          "name": "addr",
          "type": "address"
        }
      ],
      "name": "checkVerifiedRole",
      "outputs": [],
      "payable": false,
      "stateMutability": "view",
      "type": "function"
    },
    {
      "constant": true,
      "inputs": [
        {
          "name": "addr",
          "type": "address"
        }
      ],
      "name": "checkSignerRole",
      "outputs": [],
      "payable": false,
      "stateMutability": "view",
      "type": "function"
    },
    {
      "constant": true,
      "inputs": [
        {
          "name": "addr",
          "type": "address"
        }
      ],
      "name": "checkCreatorRole",
      "outputs": [],
      "payable": false,
      "stateMutability": "view",
      "type": "function"
    }
  ],
  "bytecode": "0x60806040523480156200001157600080fd5b50336000806101000a81548173ffffffffffffffffffffffffffffffffffffffff021916908373ffffffffffffffffffffffffffffffffffffffff160217905550620000a2336040805190810160405280600581526020017f61646d696e000000000000000000000000000000000000000000000000000000815250620000a8640100000000026401000000009004565b6200026c565b62000137826001836040518082805190602001908083835b602083101515620000e75780518252602082019150602081019050602083039250620000c0565b6001836020036101000a03801982511681845116808217855250505050505090500191505090815260200160405180910390206200020e6401000000000262001bc2179091906401000000009004565b7fbfec83d64eaa953f2708271a023ab9ee82057f8f3578d548c1a4ba0b5b7004898282604051808373ffffffffffffffffffffffffffffffffffffffff1673ffffffffffffffffffffffffffffffffffffffff16815260200180602001828103825283818151815260200191508051906020019080838360005b83811015620001ce578082015181840152602081019050620001b1565b50505050905090810190601f168015620001fc5780820380516001836020036101000a031916815260200191505b50935050505060405180910390a15050565b60018260000160008373ffffffffffffffffffffffffffffffffffffffff1673ffffffffffffffffffffffffffffffffffffffff16815260200190815260200160002060006101000a81548160ff0219169083151502179055505050565b611cf3806200027c6000396000f3006080604052600436106100f1576000357c0100000000000000000000000000000000000000000000000000000000900463ffffffff1680630988ca8c146100f65780630c5ac8401461017f57806313e32bdb146101c2578063217fe6c61461020557806328a4cc30146102a6578063528929a3146102e957806381d12c581461034c57806388cee87e146103f35780638da5cb5b1461047c578063b25fa92c146104d3578063c1d274b41461055c578063d391014b146105df578063d8a0b2e01461066f578063de0078c3146106b2578063f2fde38b14610759578063f653b81e1461079c578063fbfa4b7f1461081f575b600080fd5b34801561010257600080fd5b5061017d600480360381019080803573ffffffffffffffffffffffffffffffffffffffff169060200190929190803590602001908201803590602001908080601f016020809104026020016040519081016040528093929190818152602001838380828437820191505050505050919291929050505061084a565b005b34801561018b57600080fd5b506101c0600480360381019080803573ffffffffffffffffffffffffffffffffffffffff1690602001909291905050506108cb565b005b3480156101ce57600080fd5b50610203600480360381019080803573ffffffffffffffffffffffffffffffffffffffff169060200190929190505050610cff565b005b34801561021157600080fd5b5061028c600480360381019080803573ffffffffffffffffffffffffffffffffffffffff169060200190929190803590602001908201803590602001908080601f0160208091040260200160405190810160405280939291908181526020018383808284378201915050505050509192919290505050610d41565b604051808215151515815260200191505060405180910390f35b3480156102b257600080fd5b506102e7600480360381019080803573ffffffffffffffffffffffffffffffffffffffff169060200190929190505050610dc8565b005b3480156102f557600080fd5b5061034a600480360381019080803573ffffffffffffffffffffffffffffffffffffffff169060200190929190803573ffffffffffffffffffffffffffffffffffffffff169060200190929190505050610e0a565b005b34801561035857600080fd5b50610377600480360381019080803590602001909291905050506111cf565b604051808473ffffffffffffffffffffffffffffffffffffffff1673ffffffffffffffffffffffffffffffffffffffff1681526020018373ffffffffffffffffffffffffffffffffffffffff1673ffffffffffffffffffffffffffffffffffffffff168152602001828152602001935050505060405180910390f35b3480156103ff57600080fd5b5061047a600480360381019080803573ffffffffffffffffffffffffffffffffffffffff169060200190929190803590602001908201803590602001908080601f0160208091040260200160405190810160405280939291908181526020018383808284378201915050505050509192919290505050611248565b005b34801561048857600080fd5b50610491611295565b604051808273ffffffffffffffffffffffffffffffffffffffff1673ffffffffffffffffffffffffffffffffffffffff16815260200191505060405180910390f35b3480156104df57600080fd5b5061055a600480360381019080803573ffffffffffffffffffffffffffffffffffffffff169060200190929190803590602001908201803590602001908080601f01602080910402602001604051908101604052809392919081815260200183838082843782019150505050505091929192905050506112ba565b005b34801561056857600080fd5b5061059d600480360381019080803573ffffffffffffffffffffffffffffffffffffffff169060200190929190505050611307565b604051808273ffffffffffffffffffffffffffffffffffffffff1673ffffffffffffffffffffffffffffffffffffffff16815260200191505060405180910390f35b3480156105eb57600080fd5b506105f461133a565b6040518080602001828103825283818151815260200191508051906020019080838360005b83811015610634578082015181840152602081019050610619565b50505050905090810190601f1680156106615780820380516001836020036101000a031916815260200191505b509250505060405180910390f35b34801561067b57600080fd5b506106b0600480360381019080803573ffffffffffffffffffffffffffffffffffffffff169060200190929190505050611373565b005b3480156106be57600080fd5b506106dd600480360381019080803590602001909291905050506113b5565b604051808473ffffffffffffffffffffffffffffffffffffffff1673ffffffffffffffffffffffffffffffffffffffff1681526020018373ffffffffffffffffffffffffffffffffffffffff1673ffffffffffffffffffffffffffffffffffffffff168152602001828152602001935050505060405180910390f35b34801561076557600080fd5b5061079a600480360381019080803573ffffffffffffffffffffffffffffffffffffffff16906020019092919050505061146a565b005b3480156107a857600080fd5b506107dd600480360381019080803573ffffffffffffffffffffffffffffffffffffffff1690602001909291905050506115bf565b604051808273ffffffffffffffffffffffffffffffffffffffff1673ffffffffffffffffffffffffffffffffffffffff16815260200191505060405180910390f35b34801561082b57600080fd5b506108346115f2565b6040518082815260200191505060405180910390f35b6108c7826001836040518082805190602001908083835b6020831015156108865780518252602082019150602081019050602083039250610861565b6001836020036101000a03801982511681845116808217855250505050505090500191505090815260200160405180910390206115ff90919063ffffffff16565b5050565b600073ffffffffffffffffffffffffffffffffffffffff16600260003373ffffffffffffffffffffffffffffffffffffffff1673ffffffffffffffffffffffffffffffffffffffff16815260200190815260200160002060009054906101000a900473ffffffffffffffffffffffffffffffffffffffff1673ffffffffffffffffffffffffffffffffffffffff1614151561096557600080fd5b600073ffffffffffffffffffffffffffffffffffffffff16600360003373ffffffffffffffffffffffffffffffffffffffff1673ffffffffffffffffffffffffffffffffffffffff16815260200190815260200160002060009054906101000a900473ffffffffffffffffffffffffffffffffffffffff1673ffffffffffffffffffffffffffffffffffffffff161415156109ff57600080fd5b3373ffffffffffffffffffffffffffffffffffffffff168173ffffffffffffffffffffffffffffffffffffffff16638da5cb5b6040518163ffffffff167c0100000000000000000000000000000000000000000000000000000000028152600401602060405180830381600087803b158015610a7a57600080fd5b505af1158015610a8e573d6000803e3d6000fd5b505050506040513d6020811015610aa457600080fd5b810190808051906020019092919050505073ffffffffffffffffffffffffffffffffffffffff16141515610ad757600080fd5b60046060604051908101604052803373ffffffffffffffffffffffffffffffffffffffff1681526020018373ffffffffffffffffffffffffffffffffffffffff168152602001428152509080600181540180825580915050906001820390600052602060002090600302016000909192909190915060008201518160000160006101000a81548173ffffffffffffffffffffffffffffffffffffffff021916908373ffffffffffffffffffffffffffffffffffffffff16021790555060208201518160010160006101000a81548173ffffffffffffffffffffffffffffffffffffffff021916908373ffffffffffffffffffffffffffffffffffffffff1602179055506040820151816002015550505080600360003373ffffffffffffffffffffffffffffffffffffffff1673ffffffffffffffffffffffffffffffffffffffff16815260200190815260200160002060006101000a81548173ffffffffffffffffffffffffffffffffffffffff021916908373ffffffffffffffffffffffffffffffffffffffff1602179055507fa0a854e1efc619269c569f1f07b405520fdf17081229acf3a14a79b5a7b8ea523382604051808373ffffffffffffffffffffffffffffffffffffffff1673ffffffffffffffffffffffffffffffffffffffff1681526020018273ffffffffffffffffffffffffffffffffffffffff1673ffffffffffffffffffffffffffffffffffffffff1681526020019250505060405180910390a150565b610d3e816040805190810160405280600681526020017f7369676e6572000000000000000000000000000000000000000000000000000081525061084a565b50565b6000610dc0836001846040518082805190602001908083835b602083101515610d7f5780518252602082019150602081019050602083039250610d5a565b6001836020036101000a038019825116818451168082178552505050505050905001915050908152602001604051809103902061161890919063ffffffff16565b905092915050565b610e07816040805190810160405280600881526020017f766572696669656400000000000000000000000000000000000000000000000081525061084a565b50565b610e49336040805190810160405280600581526020017f61646d696e00000000000000000000000000000000000000000000000000000081525061084a565b8173ffffffffffffffffffffffffffffffffffffffff168173ffffffffffffffffffffffffffffffffffffffff16638da5cb5b6040518163ffffffff167c0100000000000000000000000000000000000000000000000000000000028152600401602060405180830381600087803b158015610ec457600080fd5b505af1158015610ed8573d6000803e3d6000fd5b505050506040513d6020811015610eee57600080fd5b810190808051906020019092919050505073ffffffffffffffffffffffffffffffffffffffff16141515610f2157600080fd5b600073ffffffffffffffffffffffffffffffffffffffff16600260008473ffffffffffffffffffffffffffffffffffffffff1673ffffffffffffffffffffffffffffffffffffffff16815260200190815260200160002060009054906101000a900473ffffffffffffffffffffffffffffffffffffffff1673ffffffffffffffffffffffffffffffffffffffff16141515610fbb57600080fd5b80600260008473ffffffffffffffffffffffffffffffffffffffff1673ffffffffffffffffffffffffffffffffffffffff16815260200190815260200160002060006101000a81548173ffffffffffffffffffffffffffffffffffffffff021916908373ffffffffffffffffffffffffffffffffffffffff1602179055506000600360008473ffffffffffffffffffffffffffffffffffffffff1673ffffffffffffffffffffffffffffffffffffffff16815260200190815260200160002060006101000a81548173ffffffffffffffffffffffffffffffffffffffff021916908373ffffffffffffffffffffffffffffffffffffffff1602179055506110c182611671565b611100826040805190810160405280600881526020017f76657269666965640000000000000000000000000000000000000000000000008152506112ba565b7f64dbe0d4fd6f143cba53f80d61ad204ecf1c5d1b77e229965dbea0e5bb53188d338383604051808473ffffffffffffffffffffffffffffffffffffffff1673ffffffffffffffffffffffffffffffffffffffff1681526020018373ffffffffffffffffffffffffffffffffffffffff1673ffffffffffffffffffffffffffffffffffffffff1681526020018273ffffffffffffffffffffffffffffffffffffffff1673ffffffffffffffffffffffffffffffffffffffff168152602001935050505060405180910390a15050565b6004818154811015156111de57fe5b90600052602060002090600302016000915090508060000160009054906101000a900473ffffffffffffffffffffffffffffffffffffffff16908060010160009054906101000a900473ffffffffffffffffffffffffffffffffffffffff16908060020154905083565b611287336040805190810160405280600581526020017f61646d696e00000000000000000000000000000000000000000000000000000081525061084a565b61129182826118c2565b5050565b6000809054906101000a900473ffffffffffffffffffffffffffffffffffffffff1681565b6112f9336040805190810160405280600581526020017f61646d696e00000000000000000000000000000000000000000000000000000081525061084a565b6113038282611a13565b5050565b60036020528060005260406000206000915054906101000a900473ffffffffffffffffffffffffffffffffffffffff1681565b6040805190810160405280600581526020017f61646d696e00000000000000000000000000000000000000000000000000000081525081565b6113b2816040805190810160405280600781526020017f63726561746f720000000000000000000000000000000000000000000000000081525061084a565b50565b60008060006004848154811015156113c957fe5b906000526020600020906003020160000160009054906101000a900473ffffffffffffffffffffffffffffffffffffffff1660048581548110151561140a57fe5b906000526020600020906003020160010160009054906101000a900473ffffffffffffffffffffffffffffffffffffffff1660048681548110151561144b57fe5b9060005260206000209060030201600201549250925092509193909250565b6000809054906101000a900473ffffffffffffffffffffffffffffffffffffffff1673ffffffffffffffffffffffffffffffffffffffff163373ffffffffffffffffffffffffffffffffffffffff161415156114c557600080fd5b600073ffffffffffffffffffffffffffffffffffffffff168173ffffffffffffffffffffffffffffffffffffffff161415151561150157600080fd5b8073ffffffffffffffffffffffffffffffffffffffff166000809054906101000a900473ffffffffffffffffffffffffffffffffffffffff1673ffffffffffffffffffffffffffffffffffffffff167f8be0079c531659141344cd1fd0a4f28419497f9722a3daafe3b4186f6b6457e060405160405180910390a3806000806101000a81548173ffffffffffffffffffffffffffffffffffffffff021916908373ffffffffffffffffffffffffffffffffffffffff16021790555050565b60026020528060005260406000206000915054906101000a900473ffffffffffffffffffffffffffffffffffffffff1681565b6000600480549050905090565b6116098282611618565b151561161457600080fd5b5050565b60008260000160008373ffffffffffffffffffffffffffffffffffffffff1673ffffffffffffffffffffffffffffffffffffffff16815260200190815260200160002060009054906101000a900460ff16905092915050565b60008090505b6004805490508110156118b3578173ffffffffffffffffffffffffffffffffffffffff166004828154811015156116aa57fe5b906000526020600020906003020160000160009054906101000a900473ffffffffffffffffffffffffffffffffffffffff1673ffffffffffffffffffffffffffffffffffffffff1614156118a65760048181548110151561170757fe5b9060005260206000209060030201600080820160006101000a81549073ffffffffffffffffffffffffffffffffffffffff02191690556001820160006101000a81549073ffffffffffffffffffffffffffffffffffffffff021916905560028201600090555050600460016004805490500381548110151561178557fe5b90600052602060002090600302016004828154811015156117a257fe5b90600052602060002090600302016000820160009054906101000a900473ffffffffffffffffffffffffffffffffffffffff168160000160006101000a81548173ffffffffffffffffffffffffffffffffffffffff021916908373ffffffffffffffffffffffffffffffffffffffff1602179055506001820160009054906101000a900473ffffffffffffffffffffffffffffffffffffffff168160010160006101000a81548173ffffffffffffffffffffffffffffffffffffffff021916908373ffffffffffffffffffffffffffffffffffffffff1602179055506002820154816002015590505060048054809190600190036118a09190611c20565b506118be565b8080600101915050611677565b600015156118bd57fe5b5b5050565b61193f826001836040518082805190602001908083835b6020831015156118fe57805182526020820191506020810190506020830392506118d9565b6001836020036101000a0380198251168184511680821785525050505050509050019150509081526020016040518091039020611b6490919063ffffffff16565b7fd211483f91fc6eff862467f8de606587a30c8fc9981056f051b897a418df803a8282604051808373ffffffffffffffffffffffffffffffffffffffff1673ffffffffffffffffffffffffffffffffffffffff16815260200180602001828103825283818151815260200191508051906020019080838360005b838110156119d45780820151818401526020810190506119b9565b50505050905090810190601f168015611a015780820380516001836020036101000a031916815260200191505b50935050505060405180910390a15050565b611a90826001836040518082805190602001908083835b602083101515611a4f5780518252602082019150602081019050602083039250611a2a565b6001836020036101000a0380198251168184511680821785525050505050509050019150509081526020016040518091039020611bc290919063ffffffff16565b7fbfec83d64eaa953f2708271a023ab9ee82057f8f3578d548c1a4ba0b5b7004898282604051808373ffffffffffffffffffffffffffffffffffffffff1673ffffffffffffffffffffffffffffffffffffffff16815260200180602001828103825283818151815260200191508051906020019080838360005b83811015611b25578082015181840152602081019050611b0a565b50505050905090810190601f168015611b525780820380516001836020036101000a031916815260200191505b50935050505060405180910390a15050565b60008260000160008373ffffffffffffffffffffffffffffffffffffffff1673ffffffffffffffffffffffffffffffffffffffff16815260200190815260200160002060006101000a81548160ff0219169083151502179055505050565b60018260000160008373ffffffffffffffffffffffffffffffffffffffff1673ffffffffffffffffffffffffffffffffffffffff16815260200190815260200160002060006101000a81548160ff0219169083151502179055505050565b815481835581811115611c4d57600302816003028360005260206000209182019101611c4c9190611c52565b5b505050565b611cc491905b80821115611cc057600080820160006101000a81549073ffffffffffffffffffffffffffffffffffffffff02191690556001820160006101000a81549073ffffffffffffffffffffffffffffffffffffffff0219169055600282016000905550600301611c58565b5090565b905600a165627a7a7230582087b4421cac17416db65cebd40239115dc9166b1b964281e7372c3a1546adf6350029",
  "source": "pragma solidity ^0.4.18;\r\n\r\nimport \"openzeppelin-solidity/contracts/ownership/Ownable.sol\";\r\n\r\nimport \"openzeppelin-solidity/contracts/ownership/rbac/RBACWithAdmin.sol\";\r\n\r\n/**\r\n@title Identities\r\n@author Eldon Hipolito\r\n@dev This contract is used as a registry for identities, and acts as the role based access control.\r\n*/\r\ncontract Identities is Ownable, RBACWithAdmin {\r\n\r\n\r\n    struct VerificationData {\r\n        address user;\r\n        address identity;\r\n        uint256 blockTimestamp;\r\n    }\r\n\r\n    // Mapping of user address to identity\r\n    mapping(address => address) public identities;\r\n\r\n    // Mapping of user address to identity\r\n    mapping(address => address) public unverifiedIdentities;\r\n\r\n    // Requests for verification\r\n    VerificationData[] public requests;\r\n\r\n    string constant ROLE_VERIFIED_IDENTITY = \"verified\";\r\n\r\n    string constant ROLE_DOCUMENT_SIGNER = \"signer\";\r\n\r\n    string constant ROLE_DOCUMENT_CREATOR = \"creator\";\r\n\r\n    /**\r\n    @dev ctor\r\n    */\r\n    function Identities() public {\r\n\r\n    }\r\n\r\n    event IdentityVerified(address verifier, address user, address identity);\r\n\r\n    event IdentityVerificationRequested(address sender, address identity);\r\n\r\n    event RoleAdded(address admin, address user, string role);\r\n\r\n    event RoleRemoved(address admin, address user, string role);\r\n\r\n\r\n    /**\r\n        @dev Verifies an identity. Only accessible by an admin\r\n        @param user - address of the user\r\n        @param identity - identity of the user\r\n    */\r\n    function verifyIdentity(address user, address identity) public onlyAdmin {\r\n        require(Ownable(identity).owner() == user);\r\n        require(identities[user] == address(0));\r\n\r\n        identities[user] = identity;\r\n        unverifiedIdentities[user] = address(0);\r\n        rmvUnverifiedIdn(user);\r\n        adminAddRole(user, ROLE_VERIFIED_IDENTITY);\r\n        IdentityVerified(msg.sender, user, identity);\r\n    }\r\n\r\n    /**\r\n        @dev Removes the unverified identity from the requests.\r\n        @param user - address of the user\r\n    */\r\n    function rmvUnverifiedIdn(address user) internal {\r\n        for(uint i = 0; i < requests.length; i++) {\r\n            if(requests[i].user == user) {\r\n                delete requests[i];\r\n                requests[i] = requests[requests.length - 1];\r\n                requests.length--;\r\n                return;\r\n            }\r\n        }\r\n        //Should not reach here...\r\n        assert(false);\r\n    }\r\n\r\n    /**\r\n        @dev Requests identity verification.\r\n        @param identity - identity of the user\r\n    */\r\n    function reqIdnVerification(address identity) external {\r\n        require(identities[msg.sender] == address(0));\r\n        require(unverifiedIdentities[msg.sender] == address(0));\r\n        require(Ownable(identity).owner() == msg.sender);\r\n\r\n        requests.push(VerificationData(msg.sender, identity, block.timestamp));\r\n        unverifiedIdentities[msg.sender] = identity;\r\n\r\n        IdentityVerificationRequested(msg.sender, identity);\r\n    }\r\n\r\n    function singleVerRequest(uint ndx) external view returns(address, address, uint256) {\r\n        return (requests[ndx].user, requests[ndx].identity, requests[ndx].blockTimestamp);\r\n    }\r\n\r\n    function requestsCount() external view returns(uint) {\r\n        return requests.length;\r\n    }\r\n\r\n\r\n    /**\r\n    @dev Will check if addr has verified role. Throws when false\r\n    @param addr - address of the user\r\n    */\r\n    function checkVerifiedRole(address addr) view public {\r\n        checkRole(addr, ROLE_VERIFIED_IDENTITY);\r\n    }\r\n    /**\r\n    @dev Will check if addr has signer role. Throws when false\r\n    @param addr - address of the user\r\n    */\r\n    function checkSignerRole(address addr) view public {\r\n        checkRole(addr, ROLE_DOCUMENT_SIGNER);\r\n    }\r\n    /**\r\n    @dev Will check if addr has creator role. Throws when false\r\n    @param addr - address of the user\r\n    */\r\n    function checkCreatorRole(address addr) view public {\r\n        checkRole(addr, ROLE_DOCUMENT_CREATOR);\r\n    }\r\n\r\n\r\n}\r\n\r\n",
  "sourcePath": "C:\\Users\\User.Admin\\Desktop\\sol-workspace\\react-dmsmc\\contracts\\Identities.sol",
  "compiler": {
    "name": "solc",
    "version": "0.4.23+commit.124ca40d.Emscripten.clang"
  },
  "schemaVersion": "2.0.0",
  "updatedAt": "2018-05-10T06:38:46.653Z"
}