{
  "contractName": "Identity",
  "abi": [
    {
      "constant": true,
      "inputs": [],
      "name": "name",
      "outputs": [
        {
          "name": "",
          "type": "string"
        }
      ],
      "payable": false,
      "stateMutability": "view",
      "type": "function"
    },
    {
      "constant": true,
      "inputs": [],
      "name": "userId",
      "outputs": [
        {
          "name": "",
          "type": "string"
        }
      ],
      "payable": false,
      "stateMutability": "view",
      "type": "function"
    },
    {
      "constant": true,
      "inputs": [],
      "name": "owner",
      "outputs": [
        {
          "name": "",
          "type": "address"
        }
      ],
      "payable": false,
      "stateMutability": "view",
      "type": "function"
    },
    {
      "inputs": [
        {
          "name": "_userId",
          "type": "string"
        },
        {
          "name": "_name",
          "type": "string"
        }
      ],
      "payable": false,
      "stateMutability": "nonpayable",
      "type": "constructor"
    },
    {
      "constant": true,
      "inputs": [
        {
          "name": "hash",
          "type": "bytes32"
        },
        {
          "name": "sig",
          "type": "bytes"
        }
      ],
      "name": "authenticate",
      "outputs": [
        {
          "name": "",
          "type": "bool"
        }
      ],
      "payable": false,
      "stateMutability": "view",
      "type": "function"
    },
    {
      "constant": true,
      "inputs": [
        {
          "name": "hash",
          "type": "bytes32"
        },
        {
          "name": "sig",
          "type": "bytes"
        }
      ],
      "name": "isOwnSignature",
      "outputs": [
        {
          "name": "",
          "type": "bool"
        }
      ],
      "payable": false,
      "stateMutability": "view",
      "type": "function"
    }
  ],
  "bytecode": "0x608060405234801561001057600080fd5b50604051610800380380610800833981018060405281019080805182019291906020018051820192919050505081600090805190602001906100539291906100b3565b50806001908051906020019061006a9291906100b3565b5033600260006101000a81548173ffffffffffffffffffffffffffffffffffffffff021916908373ffffffffffffffffffffffffffffffffffffffff1602179055505050610158565b828054600181600116156101000203166002900490600052602060002090601f016020900481019282601f106100f457805160ff1916838001178555610122565b82800160010185558215610122579182015b82811115610121578251825591602001919060010190610106565b5b50905061012f9190610133565b5090565b61015591905b80821115610151576000816000905550600101610139565b5090565b90565b610699806101676000396000f30060806040526004361061006d576000357c0100000000000000000000000000000000000000000000000000000000900463ffffffff16806306fdde031461007257806330ba1adf1461010257806358975919146101635780638da5cb5b146101f3578063b5ddb3f41461024a575b600080fd5b34801561007e57600080fd5b506100876102ab565b6040518080602001828103825283818151815260200191508051906020019080838360005b838110156100c75780820151818401526020810190506100ac565b50505050905090810190601f1680156100f45780820380516001836020036101000a031916815260200191505b509250505060405180910390f35b34801561010e57600080fd5b506101496004803603810190808035600019169060200190929190803590602001908201803590602001919091929391929390505050610349565b604051808215151515815260200191505060405180910390f35b34801561016f57600080fd5b5061017861041a565b6040518080602001828103825283818151815260200191508051906020019080838360005b838110156101b857808201518184015260208101905061019d565b50505050905090810190601f1680156101e55780820380516001836020036101000a031916815260200191505b509250505060405180910390f35b3480156101ff57600080fd5b506102086104b8565b604051808273ffffffffffffffffffffffffffffffffffffffff1673ffffffffffffffffffffffffffffffffffffffff16815260200191505060405180910390f35b34801561025657600080fd5b5061029160048036038101908080356000191690602001909291908035906020019082018035906020019190919293919293905050506104de565b604051808215151515815260200191505060405180910390f35b60018054600181600116156101000203166002900480601f0160208091040260200160405190810160405280929190818152602001828054600181600116156101000203166002900480156103415780601f1061031657610100808354040283529160200191610341565b820191906000526020600020905b81548152906001019060200180831161032457829003601f168201915b505050505081565b6000600260009054906101000a900473ffffffffffffffffffffffffffffffffffffffff1673ffffffffffffffffffffffffffffffffffffffff163373ffffffffffffffffffffffffffffffffffffffff161415156103a757600080fd5b3373ffffffffffffffffffffffffffffffffffffffff166103fa8585858080601f016020809104026020016040519081016040528093929190818152602001838380828437820191505050505050610575565b73ffffffffffffffffffffffffffffffffffffffff161490509392505050565b60008054600181600116156101000203166002900480601f0160208091040260200160405190810160405280929190818152602001828054600181600116156101000203166002900480156104b05780601f10610485576101008083540402835291602001916104b0565b820191906000526020600020905b81548152906001019060200180831161049357829003601f168201915b505050505081565b600260009054906101000a900473ffffffffffffffffffffffffffffffffffffffff1681565b6000600260009054906101000a900473ffffffffffffffffffffffffffffffffffffffff1673ffffffffffffffffffffffffffffffffffffffff166105558585858080601f016020809104026020016040519081016040528093929190818152602001838380828437820191505050505050610575565b73ffffffffffffffffffffffffffffffffffffffff161490509392505050565b6000806000806041855114151561058f5760009350610664565b6020850151925060408501519150606085015160001a9050601b8160ff1610156105ba57601b810190505b601b8160ff16141580156105d25750601c8160ff1614155b156105e05760009350610664565b600186828585604051600081526020016040526040518085600019166000191681526020018460ff1660ff1681526020018360001916600019168152602001826000191660001916815260200194505050505060206040516020810390808403906000865af1158015610657573d6000803e3d6000fd5b5050506020604051035193505b505050929150505600a165627a7a7230582093e4561b1163d6a4c31eaea878fa53762c37a91e3f3e1bc65685bfa0d079dfa20029",
  "source": "pragma solidity ^0.4.18;\r\n\r\nimport \"openzeppelin-solidity/contracts/ECRecovery.sol\";\r\nimport \"./SelfSignatureVerifiable.sol\";\r\n\r\n/**\r\n@title Identity\r\n@author Eldon Hipolito\r\n@dev Identity contract for all users.\r\nUsed to be able to identify them and to be able to interact with the system\r\n*/\r\ncontract Identity is SelfSignatureVerifiable {\r\n\r\n    string public userId;\r\n\r\n    string public name;\r\n\r\n    address public owner;\r\n\r\n    modifier onlyOwner() {\r\n        require(msg.sender == owner);\r\n        _;\r\n    }\r\n\r\n    /**\r\n    @dev ctor\r\n    */\r\n    function Identity(string _userId, string _name) public {\r\n        userId = _userId;\r\n        name = _name;\r\n        owner = msg.sender;\r\n    }\r\n\r\n    /**\r\n    @dev Acts as the sign-in function for the dapp.\r\n    The user/owner of this contract will have to sign a dummy text using his own private key.\r\n    The resulting signed text will be used by this function to recover the address of the user\r\n    to determine if he is indeed the one interacting with the dapp.\r\n    @param hash - text hashed through keccak256 algorithm\r\n    @param sig - The signed text using private key\r\n    @return bool - authenticated or not\r\n    */\r\n    function authenticate(bytes32 hash, bytes sig) external view onlyOwner returns (bool) {\r\n        return ECRecovery.recover(hash, sig) == msg.sender;\r\n    }\r\n\r\n    /**\r\n        @dev This checks whether the signed text is signed by the owner of this contract\r\n        @param hash - The text hashed through keccak256 algorithm.\r\n        @param sig - The signed text using the private key of the owner of this contract.\r\n        @return bool\r\n    */\r\n    function isOwnSignature(bytes32 hash, bytes sig) external view returns (bool) {\r\n        return ECRecovery.recover(hash, sig) == owner;\r\n    }\r\n\r\n\r\n}\r\n\r\n",
  "sourcePath": "C:\\Users\\jade.crystal\\Documents\\GitHub\\react-dmsmc\\contracts\\Identity.sol",
  "compiler": {
    "name": "solc",
    "version": "0.4.23+commit.124ca40d.Emscripten.clang"
  },
  "schemaVersion": "2.0.0",
  "updatedAt": "2018-05-31T08:34:31.904Z"
}